{
  "contractName": "Score",
  "abi": [
    {
      "inputs": [],
      "stateMutability": "nonpayable",
      "type": "constructor"
    },
    {
      "inputs": [],
      "name": "_numStudents",
      "outputs": [
        {
          "internalType": "uint256",
          "name": "",
          "type": "uint256"
        }
      ],
      "stateMutability": "view",
      "type": "function"
    },
    {
      "inputs": [
        {
          "internalType": "uint256",
          "name": "",
          "type": "uint256"
        }
      ],
      "name": "_students",
      "outputs": [
        {
          "internalType": "string",
          "name": "name",
          "type": "string"
        },
        {
          "internalType": "uint8",
          "name": "score",
          "type": "uint8"
        }
      ],
      "stateMutability": "view",
      "type": "function"
    },
    {
      "inputs": [
        {
          "internalType": "string",
          "name": "_name",
          "type": "string"
        },
        {
          "internalType": "uint8",
          "name": "_score",
          "type": "uint8"
        }
      ],
      "name": "addStudent",
      "outputs": [],
      "stateMutability": "nonpayable",
      "type": "function"
    },
    {
      "inputs": [
        {
          "internalType": "uint256",
          "name": "sid",
          "type": "uint256"
        },
        {
          "internalType": "string",
          "name": "_name",
          "type": "string"
        },
        {
          "internalType": "uint8",
          "name": "_score",
          "type": "uint8"
        }
      ],
      "name": "modifyStudent",
      "outputs": [],
      "stateMutability": "nonpayable",
      "type": "function"
    }
  ],
  "bytecode": "0x608060405234801561001057600080fd5b506000808190555033600260006101000a81548173ffffffffffffffffffffffffffffffffffffffff021916908373ffffffffffffffffffffffffffffffffffffffff160217905550610691806100686000396000f3fe608060405234801561001057600080fd5b506004361061004c5760003560e01c806362dc146b14610051578063caeb86d3146100d7578063fba841f71461018b578063ff0addcf146101a9575b600080fd5b6100d56004803603604081101561006757600080fd5b810190808035906020019064010000000081111561008457600080fd5b82018360208201111561009657600080fd5b803590602001918460018302840111640100000000831117156100b857600080fd5b9091929391929390803560ff169060200190929190505050610239565b005b610103600480360360208110156100ed57600080fd5b8101908080359060200190929190505050610399565b60405180806020018360ff1660ff168152602001828103825284818151815260200191508051906020019080838360005b8381101561014f578082015181840152602081019050610134565b50505050905090810190601f16801561017c5780820380516001836020036101000a031916815260200191505b50935050505060405180910390f35b610193610462565b6040518082815260200191505060405180910390f35b610237600480360360608110156101bf57600080fd5b8101908080359060200190929190803590602001906401000000008111156101e657600080fd5b8201836020820111156101f857600080fd5b8035906020019184600183028401116401000000008311171561021a57600080fd5b9091929391929390803560ff169060200190929190505050610468565b005b600083839050116102b2576040517f08c379a00000000000000000000000000000000000000000000000000000000081526004018080602001828103825260158152602001807fe5bf85e9a1bbe69c89e5ada6e7949fe8a18ce59097000000000000000000000081525060200191505060405180910390fd5b60648160ff16111561032c576040517f08c379a00000000000000000000000000000000000000000000000000000000081526004018080602001828103825260128152602001807fe4b88de883bde5a4a7e4ba8e313030e58886000000000000000000000000000081525060200191505060405180910390fd5b8282600160008054815260200190815260200160002060000191906103529291906105b6565b5080600160008054815260200190815260200160002060010160006101000a81548160ff021916908360ff1602179055506000808154809291906001019190505550505050565b6001602052806000526040600020600091509050806000018054600181600116156101000203166002900480601f0160208091040260200160405190810160405280929190818152602001828054600181600116156101000203166002900480156104455780601f1061041a57610100808354040283529160200191610445565b820191906000526020600020905b81548152906001019060200180831161042857829003601f168201915b5050505050908060010160009054906101000a900460ff16905082565b60005481565b600083839050116104e1576040517f08c379a00000000000000000000000000000000000000000000000000000000081526004018080602001828103825260158152602001807fe5bf85e9a1bbe69c89e5ada6e7949fe8a18ce59097000000000000000000000081525060200191505060405180910390fd5b60648160ff16111561055b576040517f08c379a00000000000000000000000000000000000000000000000000000000081526004018080602001828103825260128152602001807fe4b88de883bde5a4a7e4ba8e313030e58886000000000000000000000000000081525060200191505060405180910390fd5b82826001600087815260200190815260200160002060000191906105809291906105b6565b50806001600086815260200190815260200160002060010160006101000a81548160ff021916908360ff16021790555050505050565b828054600181600116156101000203166002900490600052602060002090601f016020900481019282601f106105f757803560ff1916838001178555610625565b82800160010185558215610625579182015b82811115610624578235825591602001919060010190610609565b5b5090506106329190610636565b5090565b61065891905b8082111561065457600081600090555060010161063c565b5090565b9056fea2646970667358221220e73ecabbe47aed3b1e8022fced2b564201a39364ce6b3a97e6c2102f771d12a664736f6c634300060b0033",
  "immutableReferences": {},
  "source": "pragma solidity ^0.6.0;\n\ninterface IScore {\n\n  function addStudent(string calldata _name,uint8 _score ) external ;\n  function modifyStudent(uint sid,string calldata _name,uint8 _score ) external ;\n}\n\n\ncontract Score is IScore{\n\n    struct Student{\n        string name;\n        uint8 score;\n    }\n    \n    uint public _numStudents;\n\n    mapping(uint=>Student) public  _students;\n\n    address _adminAddress;\n\n    constructor() public{\n        _numStudents=0;\n        _adminAddress=msg.sender;\n    }\n \n    // 添加学生成绩\n    function addStudent(string calldata _name,uint8 _score ) external override  { \n       require(bytes(_name).length >0,\"必须有学生行吗\");\n       require(_score<=100,\"不能大于100分\");\n       _students[_numStudents].name=_name;\n       _students[_numStudents].score=_score;\n       _numStudents++;\n\n    }\n\n\n    // 修改学生成绩\n\n    function modifyStudent(uint sid,string calldata _name,uint8 _score ) external override { \n       require(bytes(_name).length >0,\"必须有学生行吗\");\n       require(_score<=100,\"不能大于100分\");\n       _students[sid].name=_name;\n       _students[sid].score=_score;\n\n    }\n\n \n\n}\n\ncontract Teacher{\n     \n    IScore s;\n\n    \n \n\n\n    mapping(address => address ) owner;\n\n    modifier onlyTeacher(){\n        require(owner[msg.sender]!=address(0),\"批阅老师不能为空\");\n        _;\n    }\n\n    function pushMap(address ele) public{\n          owner[ele]=ele;\n    } \n      \n    function setScore(address addr) public {\n         s =IScore(addr);\n                \n     }\n  \n        // 添加学生成绩\n    function addStudent(string calldata _name,uint8 _score ) external onlyTeacher { \n       s.addStudent(_name,_score);\n\n    }\n\n\n    // 修改学生成绩\n\n    function modifyStudent(uint sid,string calldata _name,uint8 _score ) external   onlyTeacher { \n       s.modifyStudent(sid,_name,_score);\n    }\n}",
  "sourcePath": "/Users/darren/Documents/project/ok/homework/w2-2/code/contracts/Score.sol",
  "compiler": {
    "name": "solc",
    "version": "0.6.11+commit.5ef660b1.Emscripten.clang"
  },
  "schemaVersion": "3.4.5",
  "updatedAt": "2022-03-04T12:09:19.713Z",
  "devdoc": {
    "kind": "dev",
    "methods": {},
    "version": 1
  },
  "userdoc": {
    "kind": "user",
    "methods": {},
    "version": 1
  }
}