{
  "contractName": "Bank",
  "abi": [
    {
      "inputs": [],
      "stateMutability": "nonpayable",
      "type": "constructor"
    },
    {
      "inputs": [],
      "name": "bankName",
      "outputs": [
        {
          "internalType": "string",
          "name": "",
          "type": "string"
        }
      ],
      "stateMutability": "view",
      "type": "function",
      "constant": true
    },
    {
      "inputs": [
        {
          "internalType": "uint256",
          "name": "",
          "type": "uint256"
        }
      ],
      "name": "histories",
      "outputs": [
        {
          "internalType": "address",
          "name": "from",
          "type": "address"
        },
        {
          "internalType": "address",
          "name": "to",
          "type": "address"
        },
        {
          "internalType": "uint256",
          "name": "timestamp",
          "type": "uint256"
        },
        {
          "internalType": "uint256",
          "name": "amount",
          "type": "uint256"
        }
      ],
      "stateMutability": "view",
      "type": "function",
      "constant": true
    },
    {
      "inputs": [
        {
          "internalType": "uint256",
          "name": "amount",
          "type": "uint256"
        }
      ],
      "name": "deposite",
      "outputs": [],
      "stateMutability": "payable",
      "type": "function",
      "payable": true
    },
    {
      "inputs": [
        {
          "internalType": "uint256",
          "name": "amount",
          "type": "uint256"
        }
      ],
      "name": "withdraw",
      "outputs": [],
      "stateMutability": "payable",
      "type": "function",
      "payable": true
    },
    {
      "inputs": [
        {
          "internalType": "address",
          "name": "to",
          "type": "address"
        },
        {
          "internalType": "uint256",
          "name": "amount",
          "type": "uint256"
        }
      ],
      "name": "transfer",
      "outputs": [],
      "stateMutability": "nonpayable",
      "type": "function"
    },
    {
      "inputs": [],
      "name": "getBalance",
      "outputs": [
        {
          "internalType": "uint256",
          "name": "",
          "type": "uint256"
        }
      ],
      "stateMutability": "view",
      "type": "function",
      "constant": true
    },
    {
      "inputs": [],
      "name": "getTotalAmount",
      "outputs": [
        {
          "internalType": "uint256",
          "name": "",
          "type": "uint256"
        },
        {
          "internalType": "uint256",
          "name": "",
          "type": "uint256"
        }
      ],
      "stateMutability": "view",
      "type": "function",
      "constant": true
    }
  ],
  "bytecode": "0x608060405234801561001057600080fd5b506040518060400160405280600c81526020017fe69d8ee4bdb3e993b6e8a18c00000000000000000000000000000000000000008152506001908051906020019061005c929190610072565b5060006002819055506000600381905550610117565b828054600181600116156101000203166002900490600052602060002090601f016020900481019282601f106100b357805160ff19168380011785556100e1565b828001600101855582156100e1579182015b828111156100e05782518255916020019190600101906100c5565b5b5090506100ee91906100f2565b5090565b61011491905b808211156101105760008160009055506001016100f8565b5090565b90565b610f73806101266000396000f3fe6080604052600436106100705760003560e01c80633104562b1161004e5780633104562b1461015e57806356564b7c1461018c57806365ac434114610248578063a9059cbb1461027a57610070565b806312065fe01461007557806327d35801146100a05780632e1a7d4d14610130575b600080fd5b34801561008157600080fd5b5061008a6102d5565b6040518082815260200191505060405180910390f35b3480156100ac57600080fd5b506100b561031b565b6040518080602001828103825283818151815260200191508051906020019080838360005b838110156100f55780820151818401526020810190506100da565b50505050905090810190601f1680156101225780820380516001836020036101000a031916815260200191505b509250505060405180910390f35b61015c6004803603602081101561014657600080fd5b81019080803590602001909291905050506103b9565b005b61018a6004803603602081101561017457600080fd5b810190808035906020019092919050505061073b565b005b34801561019857600080fd5b506101c5600480360360208110156101af57600080fd5b8101908080359060200190929190505050610a37565b604051808573ffffffffffffffffffffffffffffffffffffffff1673ffffffffffffffffffffffffffffffffffffffff1681526020018473ffffffffffffffffffffffffffffffffffffffff1673ffffffffffffffffffffffffffffffffffffffff16815260200183815260200182815260200194505050505060405180910390f35b34801561025457600080fd5b5061025d610aa7565b604051808381526020018281526020019250505060405180910390f35b34801561028657600080fd5b506102d36004803603604081101561029d57600080fd5b81019080803573ffffffffffffffffffffffffffffffffffffffff16906020019092919080359060200190929190505050610ab6565b005b60008060003373ffffffffffffffffffffffffffffffffffffffff1673ffffffffffffffffffffffffffffffffffffffff16815260200190815260200160002054905090565b60018054600181600116156101000203166002900480601f0160208091040260200160405190810160405280929190818152602001828054600181600116156101000203166002900480156103b15780601f10610386576101008083540402835291602001916103b1565b820191906000526020600020905b81548152906001019060200180831161039457829003601f168201915b505050505081565b6000811161042f576040517f08c379a00000000000000000000000000000000000000000000000000000000081526004018080602001828103825260138152602001807fe58f96e992b1e5bf85e9a1bbe5a4a7e4ba8e300000000000000000000000000081525060200191505060405180910390fd5b806000803373ffffffffffffffffffffffffffffffffffffffff1673ffffffffffffffffffffffffffffffffffffffff1681526020019081526020016000205410156104e3576040517f08c379a00000000000000000000000000000000000000000000000000000000081526004018080602001828103825260178152602001807fe58f96e992b1e5bf85e9a1bbe7ad89e4ba8e76616c756500000000000000000081525060200191505060405180910390fd5b3373ffffffffffffffffffffffffffffffffffffffff166108fc829081150290604051600060405180830381858888f19350505050158015610529573d6000803e3d6000fd5b506105726000803373ffffffffffffffffffffffffffffffffffffffff1673ffffffffffffffffffffffffffffffffffffffff1681526020019081526020016000205482610f0c565b6000803373ffffffffffffffffffffffffffffffffffffffff1673ffffffffffffffffffffffffffffffffffffffff168152602001908152602001600020819055506105c060025482610f0c565b60028190555042600460006003548152602001908152602001600020600201819055503360046000600354815260200190815260200160002060000160006101000a81548173ffffffffffffffffffffffffffffffffffffffff021916908373ffffffffffffffffffffffffffffffffffffffff160217905550600060046000600354815260200190815260200160002060010160006101000a81548173ffffffffffffffffffffffffffffffffffffffff021916908373ffffffffffffffffffffffffffffffffffffffff16021790555080600460006003548152602001908152602001600020600301819055506003600081548092919060010191905055504760025414610738576040517f08c379a00000000000000000000000000000000000000000000000000000000081526004018080602001828103825260128152602001807fe993b6e8a18ce4bd99e9a29de6a0a1e9aa8c000000000000000000000000000081525060200191505060405180910390fd5b50565b600081116107b1576040517f08c379a00000000000000000000000000000000000000000000000000000000081526004018080602001828103825260138152602001807fe5ad98e6acbee5bf85e9a1bbe5a4a7e4ba8e300000000000000000000000000081525060200191505060405180910390fd5b803414610826576040517f08c379a00000000000000000000000000000000000000000000000000000000081526004018080602001828103825260178152602001807fe5ad98e6acbee5bf85e9a1bbe7ad89e4ba8e76616c756500000000000000000081525060200191505060405180910390fd5b61086e6000803373ffffffffffffffffffffffffffffffffffffffff1673ffffffffffffffffffffffffffffffffffffffff1681526020019081526020016000205482610f23565b6000803373ffffffffffffffffffffffffffffffffffffffff1673ffffffffffffffffffffffffffffffffffffffff168152602001908152602001600020819055506108bc60025482610f23565b6002819055504260046000600354815260200190815260200160002060020181905550600060046000600354815260200190815260200160002060000160006101000a81548173ffffffffffffffffffffffffffffffffffffffff021916908373ffffffffffffffffffffffffffffffffffffffff1602179055503360046000600354815260200190815260200160002060010160006101000a81548173ffffffffffffffffffffffffffffffffffffffff021916908373ffffffffffffffffffffffffffffffffffffffff16021790555080600460006003548152602001908152602001600020600301819055506003600081548092919060010191905055504760025414610a34576040517f08c379a00000000000000000000000000000000000000000000000000000000081526004018080602001828103825260128152602001807fe993b6e8a18ce4bd99e9a29de6a0a1e9aa8c000000000000000000000000000081525060200191505060405180910390fd5b50565b60046020528060005260406000206000915090508060000160009054906101000a900473ffffffffffffffffffffffffffffffffffffffff16908060010160009054906101000a900473ffffffffffffffffffffffffffffffffffffffff16908060020154908060030154905084565b60008060025447915091509091565b60008111610b2c576040517f08c379a00000000000000000000000000000000000000000000000000000000081526004018080602001828103825260138152602001807fe98791e9a29de5bf85e9a1bbe5a4a7e4ba8e300000000000000000000000000081525060200191505060405180910390fd5b806000803373ffffffffffffffffffffffffffffffffffffffff1673ffffffffffffffffffffffffffffffffffffffff168152602001908152602001600020541015610be0576040517f08c379a000000000000000000000000000000000000000000000000000000000815260040180806020018281038252600f8152602001807fe992b1e5bf85e9a1bbe8b6b3e5a49f000000000000000000000000000000000081525060200191505060405180910390fd5b8173ffffffffffffffffffffffffffffffffffffffff16600073ffffffffffffffffffffffffffffffffffffffff161415610c83576040517f08c379a000000000000000000000000000000000000000000000000000000000815260040180806020018281038252601d8152602001807f746fe5bf85e9a1bbe698afe4b880e4b8aae69c89e69588e59cb0e59d8000000081525060200191505060405180910390fd5b610ccb6000803373ffffffffffffffffffffffffffffffffffffffff1673ffffffffffffffffffffffffffffffffffffffff1681526020019081526020016000205482610f0c565b6000803373ffffffffffffffffffffffffffffffffffffffff1673ffffffffffffffffffffffffffffffffffffffff16815260200190815260200160002081905550610d556000808473ffffffffffffffffffffffffffffffffffffffff1673ffffffffffffffffffffffffffffffffffffffff1681526020019081526020016000205482610f23565b6000808473ffffffffffffffffffffffffffffffffffffffff1673ffffffffffffffffffffffffffffffffffffffff1681526020019081526020016000208190555042600460006003548152602001908152602001600020600201819055503360046000600354815260200190815260200160002060000160006101000a81548173ffffffffffffffffffffffffffffffffffffffff021916908373ffffffffffffffffffffffffffffffffffffffff1602179055508160046000600354815260200190815260200160002060010160006101000a81548173ffffffffffffffffffffffffffffffffffffffff021916908373ffffffffffffffffffffffffffffffffffffffff16021790555080600460006003548152602001908152602001600020600301819055506003600081548092919060010191905055504760025414610f08576040517f08c379a00000000000000000000000000000000000000000000000000000000081526004018080602001828103825260128152602001807fe993b6e8a18ce4bd99e9a29de6a0a1e9aa8c000000000000000000000000000081525060200191505060405180910390fd5b5050565b600082821115610f1857fe5b818303905092915050565b6000818301905082811015610f3457fe5b8090509291505056fea264697066735822122064e094c0c9cbbc40075495a8b7f01641459f1d6720d284b25f62bc68d0fa422264736f6c634300060b0033",
  "immutableReferences": {},
  "source": "pragma solidity ^0.6.1;\nimport \"./safemath.sol\";\n\ncontract Bank{\n    using SafeMath for uint256;\n    \n    mapping(address=>uint256) balances;\n\n    string public bankName;\n\n    uint256 toalAmount;\n\n    uint256  numberOfHis;\n    \n\n    struct history{\n       address from;\n       address to;\n       uint timestamp;\n       uint256 amount;\n    }\n\n    mapping(uint=>history) public histories;\n\n    constructor() public{\n        bankName=\"李佳银行\";\n        toalAmount =0 ;\n        numberOfHis=0;\n    }\n\n    //存钱\n    function deposite(uint256 amount ) external payable{\n       require(amount >0 ,\"存款必须大于0\");\n       require(msg.value==amount,\"存款必须等于value\");\n       balances[msg.sender] = SafeMath.add(balances[msg.sender],amount);\n       toalAmount = SafeMath.add(toalAmount,amount);\n\n       //存储历史记录\n       histories[numberOfHis].timestamp=now;\n       histories[numberOfHis].from=address(0);\n       histories[numberOfHis].to=msg.sender;\n       histories[numberOfHis].amount=amount;\n       numberOfHis++;\n\n       require(toalAmount == address(this).balance ,\"银行余额校验\");\n\n    }\n\n    \n     //取钱\n    function withdraw(uint256 amount ) external payable{\n       require(amount >0 ,\"取钱必须大于0\");\n       require( balances[msg.sender] >=amount,\"取钱必须等于value\");\n       msg.sender.transfer(amount);\n       balances[msg.sender] = SafeMath.sub(balances[msg.sender],amount);\n       toalAmount = SafeMath.sub(toalAmount,amount);\n\n     //存储历史记录\n       histories[numberOfHis].timestamp=now;\n       histories[numberOfHis].from=msg.sender;\n       histories[numberOfHis].to=address(0);\n       histories[numberOfHis].amount=amount;\n       numberOfHis++;\n\n       require(toalAmount == address(this).balance ,\"银行余额校验\");\n\n    }\n \n    // 转账\n\n    function transfer(address to,uint256 amount ) external{\n       require(amount >0 ,\"金额必须大于0\");\n       require(balances[msg.sender]>=amount,\"钱必须足够\");\n       require(address(0) !=to, \"to必须是一个有效地址\");\n       balances[msg.sender] = SafeMath.sub(balances[msg.sender],amount);\n       balances[to] = SafeMath.add(balances[to],amount);\n\n\n      //存储历史记录\n       histories[numberOfHis].timestamp=now;\n       histories[numberOfHis].from=msg.sender;\n       histories[numberOfHis].to=to;\n       histories[numberOfHis].amount=amount;\n       numberOfHis++;\n\n       require(toalAmount == address(this).balance ,\"银行余额校验\");\n\n    }\n\n    function getBalance() external view returns (uint256){\n       return balances[msg.sender];\n    }\n\n    function getTotalAmount() external view returns(uint256,uint256){\n       return (toalAmount,address(this).balance);\n    }\n\n\n   \n\n\n} ",
  "sourcePath": "/Users/darren/Documents/project/ok/homework/w2-1/code/contracts/Bank.sol",
  "compiler": {
    "name": "solc",
    "version": "0.6.11+commit.5ef660b1.Emscripten.clang"
  },
  "schemaVersion": "3.4.5",
  "updatedAt": "2022-03-03T09:28:34.429Z",
  "networkType": "ethereum",
  "devdoc": {
    "kind": "dev",
    "methods": {},
    "version": 1
  },
  "userdoc": {
    "kind": "user",
    "methods": {},
    "version": 1
  }
}