{
  "contractName": "Bank",
  "abi": [
    {
      "inputs": [
        {
          "internalType": "string",
          "name": "name",
          "type": "string"
        }
      ],
      "stateMutability": "nonpayable",
      "type": "constructor"
    },
    {
      "anonymous": false,
      "inputs": [
        {
          "indexed": false,
          "internalType": "address",
          "name": "from",
          "type": "address"
        },
        {
          "indexed": false,
          "internalType": "address",
          "name": "to",
          "type": "address"
        },
        {
          "indexed": false,
          "internalType": "uint256",
          "name": "amount",
          "type": "uint256"
        },
        {
          "indexed": false,
          "internalType": "uint256",
          "name": "timestamp",
          "type": "uint256"
        },
        {
          "indexed": false,
          "internalType": "uint256",
          "name": "index",
          "type": "uint256"
        }
      ],
      "name": "Transfer",
      "type": "event"
    },
    {
      "inputs": [],
      "name": "bankName",
      "outputs": [
        {
          "internalType": "string",
          "name": "",
          "type": "string"
        }
      ],
      "stateMutability": "view",
      "type": "function"
    },
    {
      "inputs": [
        {
          "internalType": "address",
          "name": "",
          "type": "address"
        },
        {
          "internalType": "uint256",
          "name": "",
          "type": "uint256"
        }
      ],
      "name": "histories",
      "outputs": [
        {
          "internalType": "address",
          "name": "from",
          "type": "address"
        },
        {
          "internalType": "address",
          "name": "to",
          "type": "address"
        },
        {
          "internalType": "uint256",
          "name": "timestamp",
          "type": "uint256"
        },
        {
          "internalType": "uint256",
          "name": "amount",
          "type": "uint256"
        }
      ],
      "stateMutability": "view",
      "type": "function"
    },
    {
      "inputs": [
        {
          "internalType": "uint256",
          "name": "amount",
          "type": "uint256"
        }
      ],
      "name": "deposite",
      "outputs": [],
      "stateMutability": "payable",
      "type": "function"
    },
    {
      "inputs": [
        {
          "internalType": "uint256",
          "name": "amount",
          "type": "uint256"
        }
      ],
      "name": "withdraw",
      "outputs": [],
      "stateMutability": "payable",
      "type": "function"
    },
    {
      "inputs": [
        {
          "internalType": "address",
          "name": "to",
          "type": "address"
        },
        {
          "internalType": "uint256",
          "name": "amount",
          "type": "uint256"
        }
      ],
      "name": "transfer",
      "outputs": [],
      "stateMutability": "nonpayable",
      "type": "function"
    },
    {
      "inputs": [],
      "name": "getBalance",
      "outputs": [
        {
          "internalType": "uint256",
          "name": "",
          "type": "uint256"
        }
      ],
      "stateMutability": "view",
      "type": "function"
    },
    {
      "inputs": [],
      "name": "getTotalAmount",
      "outputs": [
        {
          "internalType": "uint256",
          "name": "",
          "type": "uint256"
        },
        {
          "internalType": "uint256",
          "name": "",
          "type": "uint256"
        }
      ],
      "stateMutability": "view",
      "type": "function"
    }
  ],
  "bytecode": "0x60806040523480156200001157600080fd5b506040516200113638038062001136833981810160405260208110156200003757600080fd5b81019080805160405193929190846401000000008211156200005857600080fd5b838201915060208201858111156200006f57600080fd5b82518660018202830111640100000000821117156200008d57600080fd5b8083526020830192505050908051906020019080838360005b83811015620000c3578082015181840152602081019050620000a6565b50505050905090810190601f168015620000f15780820380516001836020036101000a031916815260200191505b5060405250505080600190805190602001906200011092919062000128565b506000600281905550600060038190555050620001d7565b828054600181600116156101000203166002900490600052602060002090601f016020900481019282601f106200016b57805160ff19168380011785556200019c565b828001600101855582156200019c579182015b828111156200019b5782518255916020019190600101906200017e565b5b509050620001ab9190620001af565b5090565b620001d491905b80821115620001d0576000816000905550600101620001b6565b5090565b90565b610f4f80620001e76000396000f3fe6080604052600436106100705760003560e01c80633104562b1161004e5780633104562b1461015e57806365ac43411461018c578063a9059cbb146101be578063fcf7ff2a1461021957610070565b806312065fe01461007557806327d35801146100a05780632e1a7d4d14610130575b600080fd5b34801561008157600080fd5b5061008a6102f5565b6040518082815260200191505060405180910390f35b3480156100ac57600080fd5b506100b561033b565b6040518080602001828103825283818151815260200191508051906020019080838360005b838110156100f55780820151818401526020810190506100da565b50505050905090810190601f1680156101225780820380516001836020036101000a031916815260200191505b509250505060405180910390f35b61015c6004803603602081101561014657600080fd5b81019080803590602001909291905050506103d9565b005b61018a6004803603602081101561017457600080fd5b8101908080359060200190929190505050610660565b005b34801561019857600080fd5b506101a1610861565b604051808381526020018281526020019250505060405180910390f35b3480156101ca57600080fd5b50610217600480360360408110156101e157600080fd5b81019080803573ffffffffffffffffffffffffffffffffffffffff16906020019092919080359060200190929190505050610870565b005b34801561022557600080fd5b506102726004803603604081101561023c57600080fd5b81019080803573ffffffffffffffffffffffffffffffffffffffff16906020019092919080359060200190929190505050610e6b565b604051808573ffffffffffffffffffffffffffffffffffffffff1673ffffffffffffffffffffffffffffffffffffffff1681526020018473ffffffffffffffffffffffffffffffffffffffff1673ffffffffffffffffffffffffffffffffffffffff16815260200183815260200182815260200194505050505060405180910390f35b60008060003373ffffffffffffffffffffffffffffffffffffffff1673ffffffffffffffffffffffffffffffffffffffff16815260200190815260200160002054905090565b60018054600181600116156101000203166002900480601f0160208091040260200160405190810160405280929190818152602001828054600181600116156101000203166002900480156103d15780601f106103a6576101008083540402835291602001916103d1565b820191906000526020600020905b8154815290600101906020018083116103b457829003601f168201915b505050505081565b6000811161044f576040517f08c379a00000000000000000000000000000000000000000000000000000000081526004018080602001828103825260138152602001807fe58f96e992b1e5bf85e9a1bbe5a4a7e4ba8e300000000000000000000000000081525060200191505060405180910390fd5b806000803373ffffffffffffffffffffffffffffffffffffffff1673ffffffffffffffffffffffffffffffffffffffff168152602001908152602001600020541015610503576040517f08c379a00000000000000000000000000000000000000000000000000000000081526004018080602001828103825260178152602001807fe58f96e992b1e5bf85e9a1bbe7ad89e4ba8e76616c756500000000000000000081525060200191505060405180910390fd5b3373ffffffffffffffffffffffffffffffffffffffff166108fc829081150290604051600060405180830381858888f19350505050158015610549573d6000803e3d6000fd5b506105926000803373ffffffffffffffffffffffffffffffffffffffff1673ffffffffffffffffffffffffffffffffffffffff1681526020019081526020016000205482610ee8565b6000803373ffffffffffffffffffffffffffffffffffffffff1673ffffffffffffffffffffffffffffffffffffffff168152602001908152602001600020819055506105e060025482610ee8565b600281905550476002541461065d576040517f08c379a00000000000000000000000000000000000000000000000000000000081526004018080602001828103825260128152602001807fe993b6e8a18ce4bd99e9a29de6a0a1e9aa8c000000000000000000000000000081525060200191505060405180910390fd5b50565b600081116106d6576040517f08c379a00000000000000000000000000000000000000000000000000000000081526004018080602001828103825260138152602001807fe5ad98e6acbee5bf85e9a1bbe5a4a7e4ba8e300000000000000000000000000081525060200191505060405180910390fd5b80341461074b576040517f08c379a00000000000000000000000000000000000000000000000000000000081526004018080602001828103825260178152602001807fe5ad98e6acbee5bf85e9a1bbe7ad89e4ba8e76616c756500000000000000000081525060200191505060405180910390fd5b6107936000803373ffffffffffffffffffffffffffffffffffffffff1673ffffffffffffffffffffffffffffffffffffffff1681526020019081526020016000205482610eff565b6000803373ffffffffffffffffffffffffffffffffffffffff1673ffffffffffffffffffffffffffffffffffffffff168152602001908152602001600020819055506107e160025482610eff565b600281905550476002541461085e576040517f08c379a00000000000000000000000000000000000000000000000000000000081526004018080602001828103825260128152602001807fe993b6e8a18ce4bd99e9a29de6a0a1e9aa8c000000000000000000000000000081525060200191505060405180910390fd5b50565b60008060025447915091509091565b600081116108e6576040517f08c379a00000000000000000000000000000000000000000000000000000000081526004018080602001828103825260138152602001807fe98791e9a29de5bf85e9a1bbe5a4a7e4ba8e300000000000000000000000000081525060200191505060405180910390fd5b806000803373ffffffffffffffffffffffffffffffffffffffff1673ffffffffffffffffffffffffffffffffffffffff16815260200190815260200160002054101561099a576040517f08c379a000000000000000000000000000000000000000000000000000000000815260040180806020018281038252600f8152602001807fe992b1e5bf85e9a1bbe8b6b3e5a49f000000000000000000000000000000000081525060200191505060405180910390fd5b8173ffffffffffffffffffffffffffffffffffffffff16600073ffffffffffffffffffffffffffffffffffffffff161415610a3d576040517f08c379a000000000000000000000000000000000000000000000000000000000815260040180806020018281038252601d8152602001807f746fe5bf85e9a1bbe698afe4b880e4b8aae69c89e69588e59cb0e59d8000000081525060200191505060405180910390fd5b610a856000803373ffffffffffffffffffffffffffffffffffffffff1673ffffffffffffffffffffffffffffffffffffffff1681526020019081526020016000205482610ee8565b6000803373ffffffffffffffffffffffffffffffffffffffff1673ffffffffffffffffffffffffffffffffffffffff16815260200190815260200160002081905550610b0f6000808473ffffffffffffffffffffffffffffffffffffffff1673ffffffffffffffffffffffffffffffffffffffff1681526020019081526020016000205482610eff565b6000808473ffffffffffffffffffffffffffffffffffffffff1673ffffffffffffffffffffffffffffffffffffffff1681526020019081526020016000208190555042600460003373ffffffffffffffffffffffffffffffffffffffff1673ffffffffffffffffffffffffffffffffffffffff168152602001908152602001600020600060035481526020019081526020016000206002018190555033600460003373ffffffffffffffffffffffffffffffffffffffff1673ffffffffffffffffffffffffffffffffffffffff1681526020019081526020016000206000600354815260200190815260200160002060000160006101000a81548173ffffffffffffffffffffffffffffffffffffffff021916908373ffffffffffffffffffffffffffffffffffffffff16021790555081600460003373ffffffffffffffffffffffffffffffffffffffff1673ffffffffffffffffffffffffffffffffffffffff1681526020019081526020016000206000600354815260200190815260200160002060010160006101000a81548173ffffffffffffffffffffffffffffffffffffffff021916908373ffffffffffffffffffffffffffffffffffffffff16021790555080600460003373ffffffffffffffffffffffffffffffffffffffff1673ffffffffffffffffffffffffffffffffffffffff16815260200190815260200160002060006003548152602001908152602001600020600301819055507fc817d75deaa278e988c41cf549ef38fe195ab65e0e64cd67ba47f0d185690d5833838342600354604051808673ffffffffffffffffffffffffffffffffffffffff1673ffffffffffffffffffffffffffffffffffffffff1681526020018573ffffffffffffffffffffffffffffffffffffffff1673ffffffffffffffffffffffffffffffffffffffff1681526020018481526020018381526020018281526020019550505050505060405180910390a16003600081548092919060010191905055504760025414610e67576040517f08c379a00000000000000000000000000000000000000000000000000000000081526004018080602001828103825260128152602001807fe993b6e8a18ce4bd99e9a29de6a0a1e9aa8c000000000000000000000000000081525060200191505060405180910390fd5b5050565b6004602052816000526040600020602052806000526040600020600091509150508060000160009054906101000a900473ffffffffffffffffffffffffffffffffffffffff16908060010160009054906101000a900473ffffffffffffffffffffffffffffffffffffffff16908060020154908060030154905084565b600082821115610ef457fe5b818303905092915050565b6000818301905082811015610f1057fe5b8090509291505056fea264697066735822122085649f92be9f33d79fe5dd55a7946a167fbca2d3cad933d4665875dd3dad9d0664736f6c634300060b0033",
  "immutableReferences": {},
  "source": "pragma solidity ^0.6.1;\nimport \"./safemath.sol\";\n\ncontract Bank{\n    using SafeMath for uint256;\n    \n    mapping(address=>uint256) balances;\n\n    string public bankName;\n\n    uint256 toalAmount;\n\n    uint256  numberOfHis;\n\n    event Transfer(address from,address to,uint256 amount,uint256 timestamp,uint256 index );\n\n\n    struct history{\n       address from;\n       address to;\n       uint timestamp;\n       uint256 amount;\n    }\n\n  \n   \n\n    mapping(address=> mapping(uint=>history) ) public histories;\n\n    constructor(string memory name) public{\n        bankName=name;\n        toalAmount =0 ;\n        numberOfHis=0;\n    }\n\n    //存钱\n    function deposite(uint256 amount ) external payable{\n       require(amount >0 ,\"存款必须大于0\");\n       require(msg.value==amount,\"存款必须等于value\");\n       balances[msg.sender] = SafeMath.add(balances[msg.sender],amount);\n       toalAmount = SafeMath.add(toalAmount,amount);\n\n       \n\n       require(toalAmount == address(this).balance ,\"银行余额校验\");\n\n    }\n\n    \n     //取钱\n    function withdraw(uint256 amount ) external payable{\n       require(amount >0 ,\"取钱必须大于0\");\n       require( balances[msg.sender] >=amount,\"取钱必须等于value\");\n       msg.sender.transfer(amount);\n       balances[msg.sender] = SafeMath.sub(balances[msg.sender],amount);\n       toalAmount = SafeMath.sub(toalAmount,amount);\n\n      \n\n       require(toalAmount == address(this).balance ,\"银行余额校验\");\n\n    }\n \n    // 转账\n\n    function transfer(address to,uint256 amount ) external{\n       require(amount >0 ,\"金额必须大于0\");\n       require(balances[msg.sender]>=amount,\"钱必须足够\");\n       require(address(0) !=to, \"to必须是一个有效地址\");\n       balances[msg.sender] = SafeMath.sub(balances[msg.sender],amount);\n       balances[to] = SafeMath.add(balances[to],amount);\n\n\n      //存储历史记录\n       histories[msg.sender][numberOfHis].timestamp=now;\n       histories[msg.sender][numberOfHis].from=msg.sender;\n       histories[msg.sender][numberOfHis].to=to;\n       histories[msg.sender][numberOfHis].amount=amount;\n       \n\n       emit Transfer(msg.sender,to,amount,now,numberOfHis);\n       numberOfHis++;\n       require(toalAmount == address(this).balance ,\"银行余额校验\");\n\n    }\n\n    function getBalance() external view returns (uint256){\n       return balances[msg.sender];\n    }\n\n    function getTotalAmount() external view returns(uint256,uint256){\n       return (toalAmount,address(this).balance);\n    }\n\n\n   \n\n\n} ",
  "sourcePath": "/Users/darren/Documents/project/ok/homework/w2-1/code/contracts/Bank.sol",
  "compiler": {
    "name": "solc",
    "version": "0.6.11+commit.5ef660b1.Emscripten.clang"
  },
  "schemaVersion": "3.4.5",
  "updatedAt": "2022-03-04T07:11:05.870Z",
  "devdoc": {
    "kind": "dev",
    "methods": {},
    "version": 1
  },
  "userdoc": {
    "kind": "user",
    "methods": {},
    "version": 1
  }
}