{
  "_format": "hh-sol-artifact-1",
  "contractName": "Counter",
  "sourceName": "contracts/Counter.sol",
  "abi": [
    {
      "inputs": [],
      "stateMutability": "nonpayable",
      "type": "constructor"
    },
    {
      "inputs": [
        {
          "internalType": "uint256",
          "name": "x",
          "type": "uint256"
        }
      ],
      "name": "add",
      "outputs": [],
      "stateMutability": "nonpayable",
      "type": "function"
    },
    {
      "inputs": [],
      "name": "count",
      "outputs": [],
      "stateMutability": "nonpayable",
      "type": "function"
    },
    {
      "inputs": [],
      "name": "counter",
      "outputs": [
        {
          "internalType": "uint256",
          "name": "",
          "type": "uint256"
        }
      ],
      "stateMutability": "view",
      "type": "function"
    },
    {
      "inputs": [
        {
          "internalType": "uint256",
          "name": "x",
          "type": "uint256"
        }
      ],
      "name": "set",
      "outputs": [],
      "stateMutability": "nonpayable",
      "type": "function"
    }
  ],
  "bytecode": "0x608060405234801561001057600080fd5b50600080819055506100636040518060400160405280601681526020017f63757272656e7420636f756e7465722076616c7565200000000000000000000081525060005461006860201b6101f11760201c565b610215565b610106828260405160240161007e92919061017b565b6040516020818303038152906040527f9710a9d0000000000000000000000000000000000000000000000000000000007bffffffffffffffffffffffffffffffffffffffffffffffffffffffff19166020820180517bffffffffffffffffffffffffffffffffffffffffffffffffffffffff838183161783525050505061010a60201b60201c565b5050565b60008151905060006a636f6e736f6c652e6c6f679050602083016000808483855afa5050505050565b600061013e826101ab565b61014881856101b6565b93506101588185602086016101d1565b61016181610204565b840191505092915050565b610175816101c7565b82525050565b600060408201905081810360008301526101958185610133565b90506101a4602083018461016c565b9392505050565b600081519050919050565b600082825260208201905092915050565b6000819050919050565b60005b838110156101ef5780820151818401526020810190506101d4565b838111156101fe576000848401525b50505050565b6000601f19601f8301169050919050565b6104c3806102246000396000f3fe608060405234801561001057600080fd5b506004361061004c5760003560e01c806306661abd146100515780631003e2d21461005b57806360fe47b11461007757806361bc221a14610093575b600080fd5b6100596100b1565b005b610075600480360381019061007091906102cb565b610109565b005b610091600480360381019061008c91906102cb565b6101a0565b005b61009b6101eb565b6040516100a8919061036c565b60405180910390f35b60016000546100c091906103a3565b6000819055506101076040518060400160405280601681526020017f63757272656e7420636f756e7465722076616c756520000000000000000000008152506000546101f1565b565b6101486040518060400160405280600681526020017f6164642078200000000000000000000000000000000000000000000000000000815250826101f1565b8060005461015691906103a3565b60008190555061019d6040518060400160405280601681526020017f63757272656e7420636f756e7465722076616c756520000000000000000000008152506000546101f1565b50565b806000819055506101e86040518060400160405280601681526020017f63757272656e7420636f756e7465722076616c756520000000000000000000008152506000546101f1565b50565b60005481565b610289828260405160240161020792919061033c565b6040516020818303038152906040527f9710a9d0000000000000000000000000000000000000000000000000000000007bffffffffffffffffffffffffffffffffffffffffffffffffffffffff19166020820180517bffffffffffffffffffffffffffffffffffffffffffffffffffffffff838183161783525050505061028d565b5050565b60008151905060006a636f6e736f6c652e6c6f679050602083016000808483855afa5050505050565b6000813590506102c581610476565b92915050565b6000602082840312156102dd57600080fd5b60006102eb848285016102b6565b91505092915050565b60006102ff82610387565b6103098185610392565b9350610319818560208601610403565b61032281610465565b840191505092915050565b610336816103f9565b82525050565b6000604082019050818103600083015261035681856102f4565b9050610365602083018461032d565b9392505050565b6000602082019050610381600083018461032d565b92915050565b600081519050919050565b600082825260208201905092915050565b60006103ae826103f9565b91506103b9836103f9565b9250827fffffffffffffffffffffffffffffffffffffffffffffffffffffffffffffffff038211156103ee576103ed610436565b5b828201905092915050565b6000819050919050565b60005b83811015610421578082015181840152602081019050610406565b83811115610430576000848401525b50505050565b7f4e487b7100000000000000000000000000000000000000000000000000000000600052601160045260246000fd5b6000601f19601f8301169050919050565b61047f816103f9565b811461048a57600080fd5b5056fea26469706673582212205990b3317538d57f18f086ab2fe1e183930b10dbc9437e01a33b8a4ace67778264736f6c63430008040033",
  "linkReferences": {},
  "deployedLinkReferences": {}
}