{
  "address": "0xCf7Ed3AccA5a467e9e704C703E8D87F634fB0Fc9",
  "abi": [
    {
      "inputs": [
        {
          "internalType": "contract ERC20Votes",
          "name": "_token",
          "type": "address"
        },
        {
          "internalType": "contract TimelockController",
          "name": "_timelock",
          "type": "address"
        },
        {
          "internalType": "uint256",
          "name": "_quorumPercentage",
          "type": "uint256"
        },
        {
          "internalType": "uint256",
          "name": "_votingPeriod",
          "type": "uint256"
        },
        {
          "internalType": "uint256",
          "name": "_votingDelay",
          "type": "uint256"
        }
      ],
      "stateMutability": "nonpayable",
      "type": "constructor"
    },
    {
      "anonymous": false,
      "inputs": [
        {
          "indexed": false,
          "internalType": "uint256",
          "name": "proposalId",
          "type": "uint256"
        }
      ],
      "name": "ProposalCanceled",
      "type": "event"
    },
    {
      "anonymous": false,
      "inputs": [
        {
          "indexed": false,
          "internalType": "uint256",
          "name": "proposalId",
          "type": "uint256"
        },
        {
          "indexed": false,
          "internalType": "address",
          "name": "proposer",
          "type": "address"
        },
        {
          "indexed": false,
          "internalType": "address[]",
          "name": "targets",
          "type": "address[]"
        },
        {
          "indexed": false,
          "internalType": "uint256[]",
          "name": "values",
          "type": "uint256[]"
        },
        {
          "indexed": false,
          "internalType": "string[]",
          "name": "signatures",
          "type": "string[]"
        },
        {
          "indexed": false,
          "internalType": "bytes[]",
          "name": "calldatas",
          "type": "bytes[]"
        },
        {
          "indexed": false,
          "internalType": "uint256",
          "name": "startBlock",
          "type": "uint256"
        },
        {
          "indexed": false,
          "internalType": "uint256",
          "name": "endBlock",
          "type": "uint256"
        },
        {
          "indexed": false,
          "internalType": "string",
          "name": "description",
          "type": "string"
        }
      ],
      "name": "ProposalCreated",
      "type": "event"
    },
    {
      "anonymous": false,
      "inputs": [
        {
          "indexed": false,
          "internalType": "uint256",
          "name": "proposalId",
          "type": "uint256"
        }
      ],
      "name": "ProposalExecuted",
      "type": "event"
    },
    {
      "anonymous": false,
      "inputs": [
        {
          "indexed": false,
          "internalType": "uint256",
          "name": "proposalId",
          "type": "uint256"
        },
        {
          "indexed": false,
          "internalType": "uint256",
          "name": "eta",
          "type": "uint256"
        }
      ],
      "name": "ProposalQueued",
      "type": "event"
    },
    {
      "anonymous": false,
      "inputs": [
        {
          "indexed": false,
          "internalType": "uint256",
          "name": "oldQuorumNumerator",
          "type": "uint256"
        },
        {
          "indexed": false,
          "internalType": "uint256",
          "name": "newQuorumNumerator",
          "type": "uint256"
        }
      ],
      "name": "QuorumNumeratorUpdated",
      "type": "event"
    },
    {
      "anonymous": false,
      "inputs": [
        {
          "indexed": false,
          "internalType": "address",
          "name": "oldTimelock",
          "type": "address"
        },
        {
          "indexed": false,
          "internalType": "address",
          "name": "newTimelock",
          "type": "address"
        }
      ],
      "name": "TimelockChange",
      "type": "event"
    },
    {
      "anonymous": false,
      "inputs": [
        {
          "indexed": true,
          "internalType": "address",
          "name": "voter",
          "type": "address"
        },
        {
          "indexed": false,
          "internalType": "uint256",
          "name": "proposalId",
          "type": "uint256"
        },
        {
          "indexed": false,
          "internalType": "uint8",
          "name": "support",
          "type": "uint8"
        },
        {
          "indexed": false,
          "internalType": "uint256",
          "name": "weight",
          "type": "uint256"
        },
        {
          "indexed": false,
          "internalType": "string",
          "name": "reason",
          "type": "string"
        }
      ],
      "name": "VoteCast",
      "type": "event"
    },
    {
      "inputs": [],
      "name": "BALLOT_TYPEHASH",
      "outputs": [
        {
          "internalType": "bytes32",
          "name": "",
          "type": "bytes32"
        }
      ],
      "stateMutability": "view",
      "type": "function"
    },
    {
      "inputs": [],
      "name": "COUNTING_MODE",
      "outputs": [
        {
          "internalType": "string",
          "name": "",
          "type": "string"
        }
      ],
      "stateMutability": "pure",
      "type": "function"
    },
    {
      "inputs": [
        {
          "internalType": "uint256",
          "name": "proposalId",
          "type": "uint256"
        },
        {
          "internalType": "uint8",
          "name": "support",
          "type": "uint8"
        }
      ],
      "name": "castVote",
      "outputs": [
        {
          "internalType": "uint256",
          "name": "",
          "type": "uint256"
        }
      ],
      "stateMutability": "nonpayable",
      "type": "function"
    },
    {
      "inputs": [
        {
          "internalType": "uint256",
          "name": "proposalId",
          "type": "uint256"
        },
        {
          "internalType": "uint8",
          "name": "support",
          "type": "uint8"
        },
        {
          "internalType": "uint8",
          "name": "v",
          "type": "uint8"
        },
        {
          "internalType": "bytes32",
          "name": "r",
          "type": "bytes32"
        },
        {
          "internalType": "bytes32",
          "name": "s",
          "type": "bytes32"
        }
      ],
      "name": "castVoteBySig",
      "outputs": [
        {
          "internalType": "uint256",
          "name": "",
          "type": "uint256"
        }
      ],
      "stateMutability": "nonpayable",
      "type": "function"
    },
    {
      "inputs": [
        {
          "internalType": "uint256",
          "name": "proposalId",
          "type": "uint256"
        },
        {
          "internalType": "uint8",
          "name": "support",
          "type": "uint8"
        },
        {
          "internalType": "string",
          "name": "reason",
          "type": "string"
        }
      ],
      "name": "castVoteWithReason",
      "outputs": [
        {
          "internalType": "uint256",
          "name": "",
          "type": "uint256"
        }
      ],
      "stateMutability": "nonpayable",
      "type": "function"
    },
    {
      "inputs": [
        {
          "internalType": "address[]",
          "name": "targets",
          "type": "address[]"
        },
        {
          "internalType": "uint256[]",
          "name": "values",
          "type": "uint256[]"
        },
        {
          "internalType": "bytes[]",
          "name": "calldatas",
          "type": "bytes[]"
        },
        {
          "internalType": "bytes32",
          "name": "descriptionHash",
          "type": "bytes32"
        }
      ],
      "name": "execute",
      "outputs": [
        {
          "internalType": "uint256",
          "name": "",
          "type": "uint256"
        }
      ],
      "stateMutability": "payable",
      "type": "function"
    },
    {
      "inputs": [
        {
          "internalType": "address",
          "name": "account",
          "type": "address"
        },
        {
          "internalType": "uint256",
          "name": "blockNumber",
          "type": "uint256"
        }
      ],
      "name": "getVotes",
      "outputs": [
        {
          "internalType": "uint256",
          "name": "",
          "type": "uint256"
        }
      ],
      "stateMutability": "view",
      "type": "function"
    },
    {
      "inputs": [
        {
          "internalType": "uint256",
          "name": "proposalId",
          "type": "uint256"
        },
        {
          "internalType": "address",
          "name": "account",
          "type": "address"
        }
      ],
      "name": "hasVoted",
      "outputs": [
        {
          "internalType": "bool",
          "name": "",
          "type": "bool"
        }
      ],
      "stateMutability": "view",
      "type": "function"
    },
    {
      "inputs": [
        {
          "internalType": "address[]",
          "name": "targets",
          "type": "address[]"
        },
        {
          "internalType": "uint256[]",
          "name": "values",
          "type": "uint256[]"
        },
        {
          "internalType": "bytes[]",
          "name": "calldatas",
          "type": "bytes[]"
        },
        {
          "internalType": "bytes32",
          "name": "descriptionHash",
          "type": "bytes32"
        }
      ],
      "name": "hashProposal",
      "outputs": [
        {
          "internalType": "uint256",
          "name": "",
          "type": "uint256"
        }
      ],
      "stateMutability": "pure",
      "type": "function"
    },
    {
      "inputs": [],
      "name": "name",
      "outputs": [
        {
          "internalType": "string",
          "name": "",
          "type": "string"
        }
      ],
      "stateMutability": "view",
      "type": "function"
    },
    {
      "inputs": [
        {
          "internalType": "uint256",
          "name": "proposalId",
          "type": "uint256"
        }
      ],
      "name": "proposalDeadline",
      "outputs": [
        {
          "internalType": "uint256",
          "name": "",
          "type": "uint256"
        }
      ],
      "stateMutability": "view",
      "type": "function"
    },
    {
      "inputs": [
        {
          "internalType": "uint256",
          "name": "proposalId",
          "type": "uint256"
        }
      ],
      "name": "proposalEta",
      "outputs": [
        {
          "internalType": "uint256",
          "name": "",
          "type": "uint256"
        }
      ],
      "stateMutability": "view",
      "type": "function"
    },
    {
      "inputs": [
        {
          "internalType": "uint256",
          "name": "proposalId",
          "type": "uint256"
        }
      ],
      "name": "proposalSnapshot",
      "outputs": [
        {
          "internalType": "uint256",
          "name": "",
          "type": "uint256"
        }
      ],
      "stateMutability": "view",
      "type": "function"
    },
    {
      "inputs": [],
      "name": "proposalThreshold",
      "outputs": [
        {
          "internalType": "uint256",
          "name": "",
          "type": "uint256"
        }
      ],
      "stateMutability": "view",
      "type": "function"
    },
    {
      "inputs": [
        {
          "internalType": "uint256",
          "name": "proposalId",
          "type": "uint256"
        }
      ],
      "name": "proposalVotes",
      "outputs": [
        {
          "internalType": "uint256",
          "name": "againstVotes",
          "type": "uint256"
        },
        {
          "internalType": "uint256",
          "name": "forVotes",
          "type": "uint256"
        },
        {
          "internalType": "uint256",
          "name": "abstainVotes",
          "type": "uint256"
        }
      ],
      "stateMutability": "view",
      "type": "function"
    },
    {
      "inputs": [
        {
          "internalType": "address[]",
          "name": "targets",
          "type": "address[]"
        },
        {
          "internalType": "uint256[]",
          "name": "values",
          "type": "uint256[]"
        },
        {
          "internalType": "bytes[]",
          "name": "calldatas",
          "type": "bytes[]"
        },
        {
          "internalType": "string",
          "name": "description",
          "type": "string"
        }
      ],
      "name": "propose",
      "outputs": [
        {
          "internalType": "uint256",
          "name": "",
          "type": "uint256"
        }
      ],
      "stateMutability": "nonpayable",
      "type": "function"
    },
    {
      "inputs": [
        {
          "internalType": "address[]",
          "name": "targets",
          "type": "address[]"
        },
        {
          "internalType": "uint256[]",
          "name": "values",
          "type": "uint256[]"
        },
        {
          "internalType": "bytes[]",
          "name": "calldatas",
          "type": "bytes[]"
        },
        {
          "internalType": "bytes32",
          "name": "descriptionHash",
          "type": "bytes32"
        }
      ],
      "name": "queue",
      "outputs": [
        {
          "internalType": "uint256",
          "name": "",
          "type": "uint256"
        }
      ],
      "stateMutability": "nonpayable",
      "type": "function"
    },
    {
      "inputs": [
        {
          "internalType": "uint256",
          "name": "blockNumber",
          "type": "uint256"
        }
      ],
      "name": "quorum",
      "outputs": [
        {
          "internalType": "uint256",
          "name": "",
          "type": "uint256"
        }
      ],
      "stateMutability": "view",
      "type": "function"
    },
    {
      "inputs": [],
      "name": "quorumDenominator",
      "outputs": [
        {
          "internalType": "uint256",
          "name": "",
          "type": "uint256"
        }
      ],
      "stateMutability": "view",
      "type": "function"
    },
    {
      "inputs": [],
      "name": "quorumNumerator",
      "outputs": [
        {
          "internalType": "uint256",
          "name": "",
          "type": "uint256"
        }
      ],
      "stateMutability": "view",
      "type": "function"
    },
    {
      "inputs": [
        {
          "internalType": "address",
          "name": "target",
          "type": "address"
        },
        {
          "internalType": "uint256",
          "name": "value",
          "type": "uint256"
        },
        {
          "internalType": "bytes",
          "name": "data",
          "type": "bytes"
        }
      ],
      "name": "relay",
      "outputs": [],
      "stateMutability": "nonpayable",
      "type": "function"
    },
    {
      "inputs": [],
      "name": "s_votingDelay",
      "outputs": [
        {
          "internalType": "uint256",
          "name": "",
          "type": "uint256"
        }
      ],
      "stateMutability": "view",
      "type": "function"
    },
    {
      "inputs": [],
      "name": "s_votingPeriod",
      "outputs": [
        {
          "internalType": "uint256",
          "name": "",
          "type": "uint256"
        }
      ],
      "stateMutability": "view",
      "type": "function"
    },
    {
      "inputs": [
        {
          "internalType": "uint256",
          "name": "proposalId",
          "type": "uint256"
        }
      ],
      "name": "state",
      "outputs": [
        {
          "internalType": "enum IGovernor.ProposalState",
          "name": "",
          "type": "uint8"
        }
      ],
      "stateMutability": "view",
      "type": "function"
    },
    {
      "inputs": [
        {
          "internalType": "bytes4",
          "name": "interfaceId",
          "type": "bytes4"
        }
      ],
      "name": "supportsInterface",
      "outputs": [
        {
          "internalType": "bool",
          "name": "",
          "type": "bool"
        }
      ],
      "stateMutability": "view",
      "type": "function"
    },
    {
      "inputs": [],
      "name": "timelock",
      "outputs": [
        {
          "internalType": "address",
          "name": "",
          "type": "address"
        }
      ],
      "stateMutability": "view",
      "type": "function"
    },
    {
      "inputs": [],
      "name": "token",
      "outputs": [
        {
          "internalType": "contract IVotes",
          "name": "",
          "type": "address"
        }
      ],
      "stateMutability": "view",
      "type": "function"
    },
    {
      "inputs": [
        {
          "internalType": "uint256",
          "name": "newQuorumNumerator",
          "type": "uint256"
        }
      ],
      "name": "updateQuorumNumerator",
      "outputs": [],
      "stateMutability": "nonpayable",
      "type": "function"
    },
    {
      "inputs": [
        {
          "internalType": "contract TimelockController",
          "name": "newTimelock",
          "type": "address"
        }
      ],
      "name": "updateTimelock",
      "outputs": [],
      "stateMutability": "nonpayable",
      "type": "function"
    },
    {
      "inputs": [],
      "name": "version",
      "outputs": [
        {
          "internalType": "string",
          "name": "",
          "type": "string"
        }
      ],
      "stateMutability": "view",
      "type": "function"
    },
    {
      "inputs": [],
      "name": "votingDelay",
      "outputs": [
        {
          "internalType": "uint256",
          "name": "",
          "type": "uint256"
        }
      ],
      "stateMutability": "view",
      "type": "function"
    },
    {
      "inputs": [],
      "name": "votingPeriod",
      "outputs": [
        {
          "internalType": "uint256",
          "name": "",
          "type": "uint256"
        }
      ],
      "stateMutability": "view",
      "type": "function"
    },
    {
      "stateMutability": "payable",
      "type": "receive"
    }
  ],
  "transactionHash": "0x744c2e6144e17508973698cba5272fec4bf39c2c642192713b5e00c50742a717",
  "args": [
    "0x5FbDB2315678afecb367f032d93F642f64180aa3",
    "0x9fE46736679d2D9a65F0992F2272dE9f3c7fa6e0",
    4,
    5,
    1
  ],
  "numDeployments": 1,
  "solcInputHash": "2ed7eaa7d1addd5cd499f70b083d3853",
  "bytecode": "0x6101606040523480156200001257600080fd5b506040516200562238038062005622833981810160405281019062000038919062000548565b8383866040518060400160405280601081526020017f476f7665726e6f72436f6e7472616374000000000000000000000000000000008152508062000082620001c160201b60201c565b60008280519060200120905060008280519060200120905060007f8b73c3c69bb8fe3d512ecc4cf759cc79239f7b179b0ffacaa9a75d522b39400f90508260e081815250508161010081815250504660a08181525050620000eb818484620001fe60201b60201c565b608081815250503073ffffffffffffffffffffffffffffffffffffffff1660c08173ffffffffffffffffffffffffffffffffffffffff1681525050806101208181525050505050505080600090805190602001906200014c92919062000386565b50508073ffffffffffffffffffffffffffffffffffffffff166101408173ffffffffffffffffffffffffffffffffffffffff16815250505062000195816200023a60201b60201c565b50620001a781620002dc60201b60201c565b5080600681905550816007819055505050505050620007f8565b60606040518060400160405280600181526020017f3100000000000000000000000000000000000000000000000000000000000000815250905090565b600083838346306040516020016200021b9594939291906200060d565b6040516020818303038152906040528051906020012090509392505050565b6200024a6200037d60201b60201c565b8111156200028f576040517f08c379a0000000000000000000000000000000000000000000000000000000008152600401620002869062000717565b60405180910390fd5b60006003549050816003819055507f0553476bf02ef2726e8ce5ced78d63e26e602e4a2257b1f559418e24b46339978183604051620002d092919062000739565b60405180910390a15050565b7f08f74ea46ef7894f65eabfb5e6e695de773a000b47c529ab559178069b226401600460009054906101000a900473ffffffffffffffffffffffffffffffffffffffff16826040516200033192919062000766565b60405180910390a180600460006101000a81548173ffffffffffffffffffffffffffffffffffffffff021916908373ffffffffffffffffffffffffffffffffffffffff16021790555050565b60006064905090565b8280546200039490620007c2565b90600052602060002090601f016020900481019282620003b8576000855562000404565b82601f10620003d357805160ff191683800117855562000404565b8280016001018555821562000404579182015b8281111562000403578251825591602001919060010190620003e6565b5b50905062000413919062000417565b5090565b5b808211156200043257600081600090555060010162000418565b5090565b600080fd5b600073ffffffffffffffffffffffffffffffffffffffff82169050919050565b600062000468826200043b565b9050919050565b60006200047c826200045b565b9050919050565b6200048e816200046f565b81146200049a57600080fd5b50565b600081519050620004ae8162000483565b92915050565b6000620004c1826200043b565b9050919050565b6000620004d582620004b4565b9050919050565b620004e781620004c8565b8114620004f357600080fd5b50565b6000815190506200050781620004dc565b92915050565b6000819050919050565b62000522816200050d565b81146200052e57600080fd5b50565b600081519050620005428162000517565b92915050565b600080600080600060a0868803121562000567576200056662000436565b5b600062000577888289016200049d565b95505060206200058a88828901620004f6565b94505060406200059d8882890162000531565b9350506060620005b08882890162000531565b9250506080620005c38882890162000531565b9150509295509295909350565b6000819050919050565b620005e581620005d0565b82525050565b620005f6816200050d565b82525050565b62000607816200045b565b82525050565b600060a082019050620006246000830188620005da565b620006336020830187620005da565b620006426040830186620005da565b620006516060830185620005eb565b620006606080830184620005fc565b9695505050505050565b600082825260208201905092915050565b7f476f7665726e6f72566f74657351756f72756d4672616374696f6e3a2071756f60008201527f72756d4e756d657261746f72206f7665722071756f72756d44656e6f6d696e6160208201527f746f720000000000000000000000000000000000000000000000000000000000604082015250565b6000620006ff6043836200066a565b91506200070c826200067b565b606082019050919050565b600060208201905081810360008301526200073281620006f0565b9050919050565b6000604082019050620007506000830185620005eb565b6200075f6020830184620005eb565b9392505050565b60006040820190506200077d6000830185620005fc565b6200078c6020830184620005fc565b9392505050565b7f4e487b7100000000000000000000000000000000000000000000000000000000600052602260045260246000fd5b60006002820490506001821680620007db57607f821691505b60208210811415620007f257620007f162000793565b5b50919050565b60805160a05160c05160e051610100516101205161014051614dc1620008616000396000818161144d01528181611d2f0152611df40152600061207c015260006120be0152600061209d01526000611fd201526000612028015260006120510152614dc16000f3fe6080604052600436106101e75760003560e01c80637b3c71d311610102578063c28bc2fa11610095578063deaaa7cc11610064578063deaaa7cc146107d1578063eb9019d4146107fc578063f8ce560a14610839578063fc0c546a146108765761022d565b8063c28bc2fa14610715578063c59057e41461073e578063d33219b41461077b578063dd4e2ba5146107a65761022d565b8063a890c910116100d1578063a890c91014610647578063ab58fb8e14610670578063b58131b0146106ad578063c01f9e37146106d85761022d565b80637b3c71d3146105775780637d5e81e2146105b457806397c3d334146105f1578063a7713a701461061c5761022d565b80633932abb11161017a578063544ffc9c11610149578063544ffc9c146104a557806354fd4d50146104e4578063567813881461050f578063725ae3dc1461054c5761022d565b80633932abb1146103c35780633bccf4fd146103ee5780633e4f49e61461042b57806343859632146104685761022d565b8063102d7f2c116101b6578063102d7f2c146102ee578063160cbed7146103195780632656227d146103565780632d63f693146103865761022d565b806301ffc9a71461023257806302a251a31461026f57806306f3f9e61461029a57806306fdde03146102c35761022d565b3661022d573073ffffffffffffffffffffffffffffffffffffffff1661020b6108a1565b73ffffffffffffffffffffffffffffffffffffffff161461022b57600080fd5b005b600080fd5b34801561023e57600080fd5b5061025960048036038101906102549190612ad8565b6108b0565b6040516102669190612b20565b60405180910390f35b34801561027b57600080fd5b506102846108c2565b6040516102919190612b54565b60405180910390f35b3480156102a657600080fd5b506102c160048036038101906102bc9190612b9b565b6108cc565b005b3480156102cf57600080fd5b506102d8610954565b6040516102e59190612c61565b60405180910390f35b3480156102fa57600080fd5b506103036109e6565b6040516103109190612b54565b60405180910390f35b34801561032557600080fd5b50610340600480360381019061033b91906130b8565b6109ec565b60405161034d9190612b54565b60405180910390f35b610370600480360381019061036b91906130b8565b610cc4565b60405161037d9190612b54565b60405180910390f35b34801561039257600080fd5b506103ad60048036038101906103a89190612b9b565b610df7565b6040516103ba9190612b54565b60405180910390f35b3480156103cf57600080fd5b506103d8610e65565b6040516103e59190612b54565b60405180910390f35b3480156103fa57600080fd5b50610415600480360381019061041091906131ac565b610e6f565b6040516104229190612b54565b60405180910390f35b34801561043757600080fd5b50610452600480360381019061044d9190612b9b565b610ef9565b60405161045f919061329e565b60405180910390f35b34801561047457600080fd5b5061048f600480360381019061048a91906132b9565b610f0b565b60405161049c9190612b20565b60405180910390f35b3480156104b157600080fd5b506104cc60048036038101906104c79190612b9b565b610f76565b6040516104db939291906132f9565b60405180910390f35b3480156104f057600080fd5b506104f9610fae565b6040516105069190612c61565b60405180910390f35b34801561051b57600080fd5b5061053660048036038101906105319190613330565b610feb565b6040516105439190612b54565b60405180910390f35b34801561055857600080fd5b5061056161101c565b60405161056e9190612b54565b60405180910390f35b34801561058357600080fd5b5061059e600480360381019061059991906133cb565b611022565b6040516105ab9190612b54565b60405180910390f35b3480156105c057600080fd5b506105db60048036038101906105d691906134e0565b61108a565b6040516105e89190612b54565b60405180910390f35b3480156105fd57600080fd5b506106066110a2565b6040516106139190612b54565b60405180910390f35b34801561062857600080fd5b506106316110ab565b60405161063e9190612b54565b60405180910390f35b34801561065357600080fd5b5061066e60048036038101906106699190613607565b6110b5565b005b34801561067c57600080fd5b5061069760048036038101906106929190612b9b565b61113d565b6040516106a49190612b54565b60405180910390f35b3480156106b957600080fd5b506106c2611219565b6040516106cf9190612b54565b60405180910390f35b3480156106e457600080fd5b506106ff60048036038101906106fa9190612b9b565b61121e565b60405161070c9190612b54565b60405180910390f35b34801561072157600080fd5b5061073c6004803603810190610737919061368a565b61128c565b005b34801561074a57600080fd5b50610765600480360381019061076091906130b8565b61135e565b6040516107729190612b54565b60405180910390f35b34801561078757600080fd5b5061079061139a565b60405161079d919061370d565b60405180910390f35b3480156107b257600080fd5b506107bb6113c4565b6040516107c89190612c61565b60405180910390f35b3480156107dd57600080fd5b506107e6611401565b6040516107f39190613737565b60405180910390f35b34801561080857600080fd5b50610823600480360381019061081e9190613752565b611425565b6040516108309190612b54565b60405180910390f35b34801561084557600080fd5b50610860600480360381019061085b9190612b9b565b611439565b60405161086d9190612b54565b60405180910390f35b34801561088257600080fd5b5061088b61144b565b60405161089891906137f1565b60405180910390f35b60006108ab61146f565b905090565b60006108bb82611499565b9050919050565b6000600754905090565b6108d46108a1565b73ffffffffffffffffffffffffffffffffffffffff166108f2611513565b73ffffffffffffffffffffffffffffffffffffffff1614610948576040517f08c379a000000000000000000000000000000000000000000000000000000000815260040161093f90613858565b60405180910390fd5b6109518161151b565b50565b606060008054610963906138a7565b80601f016020809104026020016040519081016040528092919081815260200182805461098f906138a7565b80156109dc5780601f106109b1576101008083540402835291602001916109dc565b820191906000526020600020905b8154815290600101906020018083116109bf57829003601f168201915b5050505050905090565b60065481565b6000806109fb8686868661135e565b905060046007811115610a1157610a10613227565b5b610a1a82610ef9565b6007811115610a2c57610a2b613227565b5b14610a6c576040517f08c379a0000000000000000000000000000000000000000000000000000000008152600401610a639061394b565b60405180910390fd5b6000600460009054906101000a900473ffffffffffffffffffffffffffffffffffffffff1673ffffffffffffffffffffffffffffffffffffffff1663f27a0c926040518163ffffffff1660e01b815260040160206040518083038186803b158015610ad657600080fd5b505afa158015610aea573d6000803e3d6000fd5b505050506040513d601f19601f82011682018060405250810190610b0e9190613980565b9050600460009054906101000a900473ffffffffffffffffffffffffffffffffffffffff1673ffffffffffffffffffffffffffffffffffffffff1663b1c5f4278888886000896040518663ffffffff1660e01b8152600401610b74959493929190613c88565b60206040518083038186803b158015610b8c57600080fd5b505afa158015610ba0573d6000803e3d6000fd5b505050506040513d601f19601f82011682018060405250810190610bc49190613d05565b6005600084815260200190815260200160002081905550600460009054906101000a900473ffffffffffffffffffffffffffffffffffffffff1673ffffffffffffffffffffffffffffffffffffffff16638f2a0bb0888888600089876040518763ffffffff1660e01b8152600401610c4196959493929190613d32565b600060405180830381600087803b158015610c5b57600080fd5b505af1158015610c6f573d6000803e3d6000fd5b505050507f9a2e42fd6722813d69113e7d0079d3d940171428df7373df9c7f7617cfda2892828242610ca19190613dd7565b604051610caf929190613e2d565b60405180910390a18192505050949350505050565b600080610cd38686868661135e565b90506000610ce082610ef9565b905060046007811115610cf657610cf5613227565b5b816007811115610d0957610d08613227565b5b1480610d39575060056007811115610d2457610d23613227565b5b816007811115610d3757610d36613227565b5b145b610d78576040517f08c379a0000000000000000000000000000000000000000000000000000000008152600401610d6f9061394b565b60405180910390fd5b600180600084815260200190815260200160002060020160006101000a81548160ff0219169083151502179055507f712ae1383f79ac853f8d882153778e0260ef8f03b504e2866e0593e04d2b291f82604051610dd59190612b54565b60405180910390a1610dea82888888886115b0565b8192505050949350505050565b6000610e54600160008481526020019081526020016000206000016040518060200160405290816000820160009054906101000a900467ffffffffffffffff1667ffffffffffffffff1667ffffffffffffffff16815250506115c4565b67ffffffffffffffff169050919050565b6000600654905090565b600080610ed0610ec87f150214d74d59b7d1e90c73fc22ef3d991dd0a76b046543d4d80ab92d2a50328f8989604051602001610ead93929190613e65565b604051602081830303815290604052805190602001206115d2565b8686866115ec565b9050610eed87828860405180602001604052806000815250611617565b91505095945050505050565b6000610f048261176b565b9050919050565b60006002600084815260200190815260200160002060030160008373ffffffffffffffffffffffffffffffffffffffff1673ffffffffffffffffffffffffffffffffffffffff16815260200190815260200160002060009054906101000a900460ff16905092915050565b600080600080600260008681526020019081526020016000209050806000015481600101548260020154935093509350509193909250565b60606040518060400160405280600181526020017f3100000000000000000000000000000000000000000000000000000000000000815250905090565b600080610ff6611513565b905061101384828560405180602001604052806000815250611617565b91505092915050565b60075481565b60008061102d611513565b905061107f86828787878080601f016020809104026020016040519081016040528093929190818152602001838380828437600081840152601f19601f82011690508083019250505050505050611617565b915050949350505050565b60006110988585858561195d565b9050949350505050565b60006064905090565b6000600354905090565b6110bd6108a1565b73ffffffffffffffffffffffffffffffffffffffff166110db611513565b73ffffffffffffffffffffffffffffffffffffffff1614611131576040517f08c379a000000000000000000000000000000000000000000000000000000000815260040161112890613858565b60405180910390fd5b61113a81611c5d565b50565b600080600460009054906101000a900473ffffffffffffffffffffffffffffffffffffffff1673ffffffffffffffffffffffffffffffffffffffff1663d45c443560056000868152602001908152602001600020546040518263ffffffff1660e01b81526004016111ae9190613737565b60206040518083038186803b1580156111c657600080fd5b505afa1580156111da573d6000803e3d6000fd5b505050506040513d601f19601f820116820180604052508101906111fe9190613980565b90506001811461120e5780611211565b60005b915050919050565b600090565b600061127b600160008481526020019081526020016000206001016040518060200160405290816000820160009054906101000a900467ffffffffffffffff1667ffffffffffffffff1667ffffffffffffffff16815250506115c4565b67ffffffffffffffff169050919050565b6112946108a1565b73ffffffffffffffffffffffffffffffffffffffff166112b2611513565b73ffffffffffffffffffffffffffffffffffffffff1614611308576040517f08c379a00000000000000000000000000000000000000000000000000000000081526004016112ff90613858565b60405180910390fd5b6113578483838080601f016020809104026020016040519081016040528093929190818152602001838380828437600081840152601f19601f8201169050808301925050505050505085611cfc565b5050505050565b6000848484846040516020016113779493929190613e9c565b6040516020818303038152906040528051906020012060001c9050949350505050565b6000600460009054906101000a900473ffffffffffffffffffffffffffffffffffffffff16905090565b60606040518060400160405280602081526020017f737570706f72743d627261766f2671756f72756d3d666f722c6162737461696e815250905090565b7f150214d74d59b7d1e90c73fc22ef3d991dd0a76b046543d4d80ab92d2a50328f81565b60006114318383611d2b565b905092915050565b600061144482611de0565b9050919050565b7f000000000000000000000000000000000000000000000000000000000000000081565b6000600460009054906101000a900473ffffffffffffffffffffffffffffffffffffffff16905090565b60007f6e665ced000000000000000000000000000000000000000000000000000000007bffffffffffffffffffffffffffffffffffffffffffffffffffffffff1916827bffffffffffffffffffffffffffffffffffffffffffffffffffffffff1916148061150c575061150b82611eb6565b5b9050919050565b600033905090565b6115236110a2565b811115611565576040517f08c379a000000000000000000000000000000000000000000000000000000000815260040161155c90613f8e565b60405180910390fd5b60006003549050816003819055507f0553476bf02ef2726e8ce5ced78d63e26e602e4a2257b1f559418e24b463399781836040516115a4929190613e2d565b60405180910390a15050565b6115bd8585858585611f30565b5050505050565b600081600001519050919050565b60006115e56115df611fce565b836120e8565b9050919050565b60008060006115fd8787878761211b565b9150915061160a81612228565b8192505050949350505050565b6000806001600087815260200190815260200160002090506001600781111561164357611642613227565b5b61164c87610ef9565b600781111561165e5761165d613227565b5b1461169e576040517f08c379a000000000000000000000000000000000000000000000000000000000815260040161169590614020565b60405180910390fd5b60006116fc866116ed846000016040518060200160405290816000820160009054906101000a900467ffffffffffffffff1667ffffffffffffffff1667ffffffffffffffff16815250506115c4565b67ffffffffffffffff16611425565b905061170a878787846123fd565b8573ffffffffffffffffffffffffffffffffffffffff167fb8e138887d0aa13bab447e82de9d5c1777041ecd21ca36ba824ff1e6c07ddda4888784886040516117569493929190614040565b60405180910390a28092505050949350505050565b60008061177783612603565b90506004600781111561178d5761178c613227565b5b8160078111156117a05761179f613227565b5b146117ae5780915050611958565b6000600560008581526020019081526020016000205490506000801b8114156117db578192505050611958565b600460009054906101000a900473ffffffffffffffffffffffffffffffffffffffff1673ffffffffffffffffffffffffffffffffffffffff16632ab0f529826040518263ffffffff1660e01b81526004016118369190613737565b60206040518083038186803b15801561184e57600080fd5b505afa158015611862573d6000803e3d6000fd5b505050506040513d601f19601f8201168201806040525081019061188691906140b8565b1561189657600792505050611958565b600460009054906101000a900473ffffffffffffffffffffffffffffffffffffffff1673ffffffffffffffffffffffffffffffffffffffff1663584b153e826040518263ffffffff1660e01b81526004016118f19190613737565b60206040518083038186803b15801561190957600080fd5b505afa15801561191d573d6000803e3d6000fd5b505050506040513d601f19601f8201168201806040525081019061194191906140b8565b1561195157600592505050611958565b6002925050505b919050565b6000611967611219565b61197d3360014361197891906140e5565b611425565b10156119be576040517f08c379a00000000000000000000000000000000000000000000000000000000081526004016119b5906141b1565b60405180910390fd5b60006119d3868686868051906020012061135e565b90508451865114611a19576040517f08c379a0000000000000000000000000000000000000000000000000000000008152600401611a1090614243565b60405180910390fd5b8351865114611a5d576040517f08c379a0000000000000000000000000000000000000000000000000000000008152600401611a5490614243565b60405180910390fd5b6000865111611aa1576040517f08c379a0000000000000000000000000000000000000000000000000000000008152600401611a98906142af565b60405180910390fd5b6000600160008381526020019081526020016000209050611b01816000016040518060200160405290816000820160009054906101000a900467ffffffffffffffff1667ffffffffffffffff1667ffffffffffffffff1681525050612718565b611b40576040517f08c379a0000000000000000000000000000000000000000000000000000000008152600401611b3790614341565b60405180910390fd5b6000611b52611b4d610e65565b612732565b611b5b43612732565b611b659190614375565b90506000611b79611b746108c2565b612732565b82611b849190614375565b9050611b9c828460000161278990919063ffffffff16565b611bb2818460010161278990919063ffffffff16565b7f7d84a6263ae0d98d3329bd7b46bb4e8d6f98cd35a7adb45c274c8b7fd5ebd5e084611bdc611513565b8b8b8d5167ffffffffffffffff811115611bf957611bf8612c88565b5b604051908082528060200260200182016040528015611c2c57816020015b6060815260200190600190039081611c175790505b508c88888e604051611c46999897969594939291906144f0565b60405180910390a183945050505050949350505050565b7f08f74ea46ef7894f65eabfb5e6e695de773a000b47c529ab559178069b226401600460009054906101000a900473ffffffffffffffffffffffffffffffffffffffff1682604051611cb09291906145a0565b60405180910390a180600460006101000a81548173ffffffffffffffffffffffffffffffffffffffff021916908373ffffffffffffffffffffffffffffffffffffffff16021790555050565b6060611d22848484604051806060016040528060298152602001614d63602991396127b8565b90509392505050565b60007f000000000000000000000000000000000000000000000000000000000000000073ffffffffffffffffffffffffffffffffffffffff16633a46b1a884846040518363ffffffff1660e01b8152600401611d889291906145c9565b60206040518083038186803b158015611da057600080fd5b505afa158015611db4573d6000803e3d6000fd5b505050506040513d601f19601f82011682018060405250810190611dd89190613980565b905092915050565b6000611dea6110a2565b611df26110ab565b7f000000000000000000000000000000000000000000000000000000000000000073ffffffffffffffffffffffffffffffffffffffff16638e539e8c856040518263ffffffff1660e01b8152600401611e4b9190612b54565b60206040518083038186803b158015611e6357600080fd5b505afa158015611e77573d6000803e3d6000fd5b505050506040513d601f19601f82011682018060405250810190611e9b9190613980565b611ea591906145f2565b611eaf919061467b565b9050919050565b60007fbf26d897000000000000000000000000000000000000000000000000000000007bffffffffffffffffffffffffffffffffffffffffffffffffffffffff1916827bffffffffffffffffffffffffffffffffffffffffffffffffffffffff19161480611f295750611f28826128cc565b5b9050919050565b600460009054906101000a900473ffffffffffffffffffffffffffffffffffffffff1673ffffffffffffffffffffffffffffffffffffffff1663e38335e5348686866000876040518763ffffffff1660e01b8152600401611f95959493929190613c88565b6000604051808303818588803b158015611fae57600080fd5b505af1158015611fc2573d6000803e3d6000fd5b50505050505050505050565b60007f000000000000000000000000000000000000000000000000000000000000000073ffffffffffffffffffffffffffffffffffffffff163073ffffffffffffffffffffffffffffffffffffffff1614801561204a57507f000000000000000000000000000000000000000000000000000000000000000046145b15612077577f000000000000000000000000000000000000000000000000000000000000000090506120e5565b6120e27f00000000000000000000000000000000000000000000000000000000000000007f00000000000000000000000000000000000000000000000000000000000000007f0000000000000000000000000000000000000000000000000000000000000000612936565b90505b90565b600082826040516020016120fd929190614724565b60405160208183030381529060405280519060200120905092915050565b6000807f7fffffffffffffffffffffffffffffff5d576e7357a4501ddfe92f46681b20a08360001c111561215657600060039150915061221f565b601b8560ff161415801561216e5750601c8560ff1614155b1561218057600060049150915061221f565b6000600187878787604051600081526020016040526040516121a5949392919061475b565b6020604051602081039080840390855afa1580156121c7573d6000803e3d6000fd5b505050602060405103519050600073ffffffffffffffffffffffffffffffffffffffff168173ffffffffffffffffffffffffffffffffffffffff1614156122165760006001925092505061221f565b80600092509250505b94509492505050565b6000600481111561223c5761223b613227565b5b81600481111561224f5761224e613227565b5b141561225a576123fa565b6001600481111561226e5761226d613227565b5b81600481111561228157612280613227565b5b14156122c2576040517f08c379a00000000000000000000000000000000000000000000000000000000081526004016122b9906147ec565b60405180910390fd5b600260048111156122d6576122d5613227565b5b8160048111156122e9576122e8613227565b5b141561232a576040517f08c379a000000000000000000000000000000000000000000000000000000000815260040161232190614858565b60405180910390fd5b6003600481111561233e5761233d613227565b5b81600481111561235157612350613227565b5b1415612392576040517f08c379a0000000000000000000000000000000000000000000000000000000008152600401612389906148ea565b60405180910390fd5b6004808111156123a5576123a4613227565b5b8160048111156123b8576123b7613227565b5b14156123f9576040517f08c379a00000000000000000000000000000000000000000000000000000000081526004016123f09061497c565b60405180910390fd5b5b50565b60006002600086815260200190815260200160002090508060030160008573ffffffffffffffffffffffffffffffffffffffff1673ffffffffffffffffffffffffffffffffffffffff16815260200190815260200160002060009054906101000a900460ff16156124a3576040517f08c379a000000000000000000000000000000000000000000000000000000000815260040161249a90614a0e565b60405180910390fd5b60018160030160008673ffffffffffffffffffffffffffffffffffffffff1673ffffffffffffffffffffffffffffffffffffffff16815260200190815260200160002060006101000a81548160ff0219169083151502179055506000600281111561251157612510613227565b5b60ff168360ff16141561253e57818160000160008282546125329190613dd7565b925050819055506125fc565b6001600281111561255257612551613227565b5b60ff168360ff16141561257f57818160010160008282546125739190613dd7565b925050819055506125fb565b60028081111561259257612591613227565b5b60ff168360ff1614156125bf57818160020160008282546125b39190613dd7565b925050819055506125fa565b6040517f08c379a00000000000000000000000000000000000000000000000000000000081526004016125f190614aa0565b60405180910390fd5b5b5b5050505050565b6000806001600084815260200190815260200160002090508060020160009054906101000a900460ff161561263c576007915050612713565b8060020160019054906101000a900460ff161561265d576002915050612713565b600061266884610df7565b905060008114156126ae576040517f08c379a00000000000000000000000000000000000000000000000000000000081526004016126a590614b0c565b60405180910390fd5b4381106126c057600092505050612713565b60006126cb8561121e565b90504381106126e05760019350505050612713565b6126e985612970565b80156126fa57506126f9856129b7565b5b1561270b5760049350505050612713565b600393505050505b919050565b600080826000015167ffffffffffffffff16149050919050565b600067ffffffffffffffff8016821115612781576040517f08c379a000000000000000000000000000000000000000000000000000000000815260040161277890614b9e565b60405180910390fd5b819050919050565b808260000160006101000a81548167ffffffffffffffff021916908367ffffffffffffffff1602179055505050565b6060824710156127fd576040517f08c379a00000000000000000000000000000000000000000000000000000000081526004016127f490614c30565b60405180910390fd5b612806856129e2565b612845576040517f08c379a000000000000000000000000000000000000000000000000000000000815260040161283c90614c9c565b60405180910390fd5b6000808673ffffffffffffffffffffffffffffffffffffffff16858760405161286e9190614cf8565b60006040518083038185875af1925050503d80600081146128ab576040519150601f19603f3d011682016040523d82523d6000602084013e6128b0565b606091505b50915091506128c0828286612a05565b92505050949350505050565b60007f01ffc9a7000000000000000000000000000000000000000000000000000000007bffffffffffffffffffffffffffffffffffffffffffffffffffffffff1916827bffffffffffffffffffffffffffffffffffffffffffffffffffffffff1916149050919050565b60008383834630604051602001612951959493929190614d0f565b6040516020818303038152906040528051906020012090509392505050565b6000806002600084815260200190815260200160002090508060020154816001015461299c9190613dd7565b6129ad6129a885610df7565b611439565b1115915050919050565b6000806002600084815260200190815260200160002090508060000154816001015411915050919050565b6000808273ffffffffffffffffffffffffffffffffffffffff163b119050919050565b60608315612a1557829050612a65565b600083511115612a285782518084602001fd5b816040517f08c379a0000000000000000000000000000000000000000000000000000000008152600401612a5c9190612c61565b60405180910390fd5b9392505050565b6000604051905090565b600080fd5b600080fd5b60007fffffffff0000000000000000000000000000000000000000000000000000000082169050919050565b612ab581612a80565b8114612ac057600080fd5b50565b600081359050612ad281612aac565b92915050565b600060208284031215612aee57612aed612a76565b5b6000612afc84828501612ac3565b91505092915050565b60008115159050919050565b612b1a81612b05565b82525050565b6000602082019050612b356000830184612b11565b92915050565b6000819050919050565b612b4e81612b3b565b82525050565b6000602082019050612b696000830184612b45565b92915050565b612b7881612b3b565b8114612b8357600080fd5b50565b600081359050612b9581612b6f565b92915050565b600060208284031215612bb157612bb0612a76565b5b6000612bbf84828501612b86565b91505092915050565b600081519050919050565b600082825260208201905092915050565b60005b83811015612c02578082015181840152602081019050612be7565b83811115612c11576000848401525b50505050565b6000601f19601f8301169050919050565b6000612c3382612bc8565b612c3d8185612bd3565b9350612c4d818560208601612be4565b612c5681612c17565b840191505092915050565b60006020820190508181036000830152612c7b8184612c28565b905092915050565b600080fd5b7f4e487b7100000000000000000000000000000000000000000000000000000000600052604160045260246000fd5b612cc082612c17565b810181811067ffffffffffffffff82111715612cdf57612cde612c88565b5b80604052505050565b6000612cf2612a6c565b9050612cfe8282612cb7565b919050565b600067ffffffffffffffff821115612d1e57612d1d612c88565b5b602082029050602081019050919050565b600080fd5b600073ffffffffffffffffffffffffffffffffffffffff82169050919050565b6000612d5f82612d34565b9050919050565b612d6f81612d54565b8114612d7a57600080fd5b50565b600081359050612d8c81612d66565b92915050565b6000612da5612da084612d03565b612ce8565b90508083825260208201905060208402830185811115612dc857612dc7612d2f565b5b835b81811015612df15780612ddd8882612d7d565b845260208401935050602081019050612dca565b5050509392505050565b600082601f830112612e1057612e0f612c83565b5b8135612e20848260208601612d92565b91505092915050565b600067ffffffffffffffff821115612e4457612e43612c88565b5b602082029050602081019050919050565b6000612e68612e6384612e29565b612ce8565b90508083825260208201905060208402830185811115612e8b57612e8a612d2f565b5b835b81811015612eb45780612ea08882612b86565b845260208401935050602081019050612e8d565b5050509392505050565b600082601f830112612ed357612ed2612c83565b5b8135612ee3848260208601612e55565b91505092915050565b600067ffffffffffffffff821115612f0757612f06612c88565b5b602082029050602081019050919050565b600080fd5b600067ffffffffffffffff821115612f3857612f37612c88565b5b612f4182612c17565b9050602081019050919050565b82818337600083830152505050565b6000612f70612f6b84612f1d565b612ce8565b905082815260208101848484011115612f8c57612f8b612f18565b5b612f97848285612f4e565b509392505050565b600082601f830112612fb457612fb3612c83565b5b8135612fc4848260208601612f5d565b91505092915050565b6000612fe0612fdb84612eec565b612ce8565b9050808382526020820190506020840283018581111561300357613002612d2f565b5b835b8181101561304a57803567ffffffffffffffff81111561302857613027612c83565b5b8086016130358982612f9f565b85526020850194505050602081019050613005565b5050509392505050565b600082601f83011261306957613068612c83565b5b8135613079848260208601612fcd565b91505092915050565b6000819050919050565b61309581613082565b81146130a057600080fd5b50565b6000813590506130b28161308c565b92915050565b600080600080608085870312156130d2576130d1612a76565b5b600085013567ffffffffffffffff8111156130f0576130ef612a7b565b5b6130fc87828801612dfb565b945050602085013567ffffffffffffffff81111561311d5761311c612a7b565b5b61312987828801612ebe565b935050604085013567ffffffffffffffff81111561314a57613149612a7b565b5b61315687828801613054565b9250506060613167878288016130a3565b91505092959194509250565b600060ff82169050919050565b61318981613173565b811461319457600080fd5b50565b6000813590506131a681613180565b92915050565b600080600080600060a086880312156131c8576131c7612a76565b5b60006131d688828901612b86565b95505060206131e788828901613197565b94505060406131f888828901613197565b9350506060613209888289016130a3565b925050608061321a888289016130a3565b9150509295509295909350565b7f4e487b7100000000000000000000000000000000000000000000000000000000600052602160045260246000fd5b6008811061326757613266613227565b5b50565b600081905061327882613256565b919050565b60006132888261326a565b9050919050565b6132988161327d565b82525050565b60006020820190506132b3600083018461328f565b92915050565b600080604083850312156132d0576132cf612a76565b5b60006132de85828601612b86565b92505060206132ef85828601612d7d565b9150509250929050565b600060608201905061330e6000830186612b45565b61331b6020830185612b45565b6133286040830184612b45565b949350505050565b6000806040838503121561334757613346612a76565b5b600061335585828601612b86565b925050602061336685828601613197565b9150509250929050565b600080fd5b60008083601f84011261338b5761338a612c83565b5b8235905067ffffffffffffffff8111156133a8576133a7613370565b5b6020830191508360018202830111156133c4576133c3612d2f565b5b9250929050565b600080600080606085870312156133e5576133e4612a76565b5b60006133f387828801612b86565b945050602061340487828801613197565b935050604085013567ffffffffffffffff81111561342557613424612a7b565b5b61343187828801613375565b925092505092959194509250565b600067ffffffffffffffff82111561345a57613459612c88565b5b61346382612c17565b9050602081019050919050565b600061348361347e8461343f565b612ce8565b90508281526020810184848401111561349f5761349e612f18565b5b6134aa848285612f4e565b509392505050565b600082601f8301126134c7576134c6612c83565b5b81356134d7848260208601613470565b91505092915050565b600080600080608085870312156134fa576134f9612a76565b5b600085013567ffffffffffffffff81111561351857613517612a7b565b5b61352487828801612dfb565b945050602085013567ffffffffffffffff81111561354557613544612a7b565b5b61355187828801612ebe565b935050604085013567ffffffffffffffff81111561357257613571612a7b565b5b61357e87828801613054565b925050606085013567ffffffffffffffff81111561359f5761359e612a7b565b5b6135ab878288016134b2565b91505092959194509250565b60006135c282612d34565b9050919050565b60006135d4826135b7565b9050919050565b6135e4816135c9565b81146135ef57600080fd5b50565b600081359050613601816135db565b92915050565b60006020828403121561361d5761361c612a76565b5b600061362b848285016135f2565b91505092915050565b60008083601f84011261364a57613649612c83565b5b8235905067ffffffffffffffff81111561366757613666613370565b5b60208301915083600182028301111561368357613682612d2f565b5b9250929050565b600080600080606085870312156136a4576136a3612a76565b5b60006136b287828801612d7d565b94505060206136c387828801612b86565b935050604085013567ffffffffffffffff8111156136e4576136e3612a7b565b5b6136f087828801613634565b925092505092959194509250565b61370781612d54565b82525050565b600060208201905061372260008301846136fe565b92915050565b61373181613082565b82525050565b600060208201905061374c6000830184613728565b92915050565b6000806040838503121561376957613768612a76565b5b600061377785828601612d7d565b925050602061378885828601612b86565b9150509250929050565b6000819050919050565b60006137b76137b26137ad84612d34565b613792565b612d34565b9050919050565b60006137c98261379c565b9050919050565b60006137db826137be565b9050919050565b6137eb816137d0565b82525050565b600060208201905061380660008301846137e2565b92915050565b7f476f7665726e6f723a206f6e6c79476f7665726e616e63650000000000000000600082015250565b6000613842601883612bd3565b915061384d8261380c565b602082019050919050565b6000602082019050818103600083015261387181613835565b9050919050565b7f4e487b7100000000000000000000000000000000000000000000000000000000600052602260045260246000fd5b600060028204905060018216806138bf57607f821691505b602082108114156138d3576138d2613878565b5b50919050565b7f476f7665726e6f723a2070726f706f73616c206e6f742073756363657373667560008201527f6c00000000000000000000000000000000000000000000000000000000000000602082015250565b6000613935602183612bd3565b9150613940826138d9565b604082019050919050565b6000602082019050818103600083015261396481613928565b9050919050565b60008151905061397a81612b6f565b92915050565b60006020828403121561399657613995612a76565b5b60006139a48482850161396b565b91505092915050565b600081519050919050565b600082825260208201905092915050565b6000819050602082019050919050565b6139e281612d54565b82525050565b60006139f483836139d9565b60208301905092915050565b6000602082019050919050565b6000613a18826139ad565b613a2281856139b8565b9350613a2d836139c9565b8060005b83811015613a5e578151613a4588826139e8565b9750613a5083613a00565b925050600181019050613a31565b5085935050505092915050565b600081519050919050565b600082825260208201905092915050565b6000819050602082019050919050565b613aa081612b3b565b82525050565b6000613ab28383613a97565b60208301905092915050565b6000602082019050919050565b6000613ad682613a6b565b613ae08185613a76565b9350613aeb83613a87565b8060005b83811015613b1c578151613b038882613aa6565b9750613b0e83613abe565b925050600181019050613aef565b5085935050505092915050565b600081519050919050565b600082825260208201905092915050565b6000819050602082019050919050565b600081519050919050565b600082825260208201905092915050565b6000613b7c82613b55565b613b868185613b60565b9350613b96818560208601612be4565b613b9f81612c17565b840191505092915050565b6000613bb68383613b71565b905092915050565b6000602082019050919050565b6000613bd682613b29565b613be08185613b34565b935083602082028501613bf285613b45565b8060005b85811015613c2e5784840389528151613c0f8582613baa565b9450613c1a83613bbe565b925060208a01995050600181019050613bf6565b50829750879550505050505092915050565b6000819050919050565b60008160001b9050919050565b6000613c72613c6d613c6884613c40565b613c4a565b613082565b9050919050565b613c8281613c57565b82525050565b600060a0820190508181036000830152613ca28188613a0d565b90508181036020830152613cb68187613acb565b90508181036040830152613cca8186613bcb565b9050613cd96060830185613c79565b613ce66080830184613728565b9695505050505050565b600081519050613cff8161308c565b92915050565b600060208284031215613d1b57613d1a612a76565b5b6000613d2984828501613cf0565b91505092915050565b600060c0820190508181036000830152613d4c8189613a0d565b90508181036020830152613d608188613acb565b90508181036040830152613d748187613bcb565b9050613d836060830186613c79565b613d906080830185613728565b613d9d60a0830184612b45565b979650505050505050565b7f4e487b7100000000000000000000000000000000000000000000000000000000600052601160045260246000fd5b6000613de282612b3b565b9150613ded83612b3b565b9250827fffffffffffffffffffffffffffffffffffffffffffffffffffffffffffffffff03821115613e2257613e21613da8565b5b828201905092915050565b6000604082019050613e426000830185612b45565b613e4f6020830184612b45565b9392505050565b613e5f81613173565b82525050565b6000606082019050613e7a6000830186613728565b613e876020830185612b45565b613e946040830184613e56565b949350505050565b60006080820190508181036000830152613eb68187613a0d565b90508181036020830152613eca8186613acb565b90508181036040830152613ede8185613bcb565b9050613eed6060830184613728565b95945050505050565b7f476f7665726e6f72566f74657351756f72756d4672616374696f6e3a2071756f60008201527f72756d4e756d657261746f72206f7665722071756f72756d44656e6f6d696e6160208201527f746f720000000000000000000000000000000000000000000000000000000000604082015250565b6000613f78604383612bd3565b9150613f8382613ef6565b606082019050919050565b60006020820190508181036000830152613fa781613f6b565b9050919050565b7f476f7665726e6f723a20766f7465206e6f742063757272656e746c792061637460008201527f6976650000000000000000000000000000000000000000000000000000000000602082015250565b600061400a602383612bd3565b915061401582613fae565b604082019050919050565b6000602082019050818103600083015261403981613ffd565b9050919050565b60006080820190506140556000830187612b45565b6140626020830186613e56565b61406f6040830185612b45565b81810360608301526140818184612c28565b905095945050505050565b61409581612b05565b81146140a057600080fd5b50565b6000815190506140b28161408c565b92915050565b6000602082840312156140ce576140cd612a76565b5b60006140dc848285016140a3565b91505092915050565b60006140f082612b3b565b91506140fb83612b3b565b92508282101561410e5761410d613da8565b5b828203905092915050565b7f476f7665726e6f72436f6d7061746962696c697479427261766f3a2070726f7060008201527f6f73657220766f7465732062656c6f772070726f706f73616c2074687265736860208201527f6f6c640000000000000000000000000000000000000000000000000000000000604082015250565b600061419b604383612bd3565b91506141a682614119565b606082019050919050565b600060208201905081810360008301526141ca8161418e565b9050919050565b7f476f7665726e6f723a20696e76616c69642070726f706f73616c206c656e677460008201527f6800000000000000000000000000000000000000000000000000000000000000602082015250565b600061422d602183612bd3565b9150614238826141d1565b604082019050919050565b6000602082019050818103600083015261425c81614220565b9050919050565b7f476f7665726e6f723a20656d7074792070726f706f73616c0000000000000000600082015250565b6000614299601883612bd3565b91506142a482614263565b602082019050919050565b600060208201905081810360008301526142c88161428c565b9050919050565b7f476f7665726e6f723a2070726f706f73616c20616c726561647920657869737460008201527f7300000000000000000000000000000000000000000000000000000000000000602082015250565b600061432b602183612bd3565b9150614336826142cf565b604082019050919050565b6000602082019050818103600083015261435a8161431e565b9050919050565b600067ffffffffffffffff82169050919050565b600061438082614361565b915061438b83614361565b92508267ffffffffffffffff038211156143a8576143a7613da8565b5b828201905092915050565b600081519050919050565b600082825260208201905092915050565b6000819050602082019050919050565b600082825260208201905092915050565b60006143fb82612bc8565b61440581856143df565b9350614415818560208601612be4565b61441e81612c17565b840191505092915050565b600061443583836143f0565b905092915050565b6000602082019050919050565b6000614455826143b3565b61445f81856143be565b935083602082028501614471856143cf565b8060005b858110156144ad578484038952815161448e8582614429565b94506144998361443d565b925060208a01995050600181019050614475565b50829750879550505050505092915050565b60006144da6144d56144d084614361565b613792565b612b3b565b9050919050565b6144ea816144bf565b82525050565b600061012082019050614506600083018c612b45565b614513602083018b6136fe565b8181036040830152614525818a613a0d565b905081810360608301526145398189613acb565b9050818103608083015261454d818861444a565b905081810360a08301526145618187613bcb565b905061457060c08301866144e1565b61457d60e08301856144e1565b8181036101008301526145908184612c28565b90509a9950505050505050505050565b60006040820190506145b560008301856136fe565b6145c260208301846136fe565b9392505050565b60006040820190506145de60008301856136fe565b6145eb6020830184612b45565b9392505050565b60006145fd82612b3b565b915061460883612b3b565b9250817fffffffffffffffffffffffffffffffffffffffffffffffffffffffffffffffff048311821515161561464157614640613da8565b5b828202905092915050565b7f4e487b7100000000000000000000000000000000000000000000000000000000600052601260045260246000fd5b600061468682612b3b565b915061469183612b3b565b9250826146a1576146a061464c565b5b828204905092915050565b600081905092915050565b7f1901000000000000000000000000000000000000000000000000000000000000600082015250565b60006146ed6002836146ac565b91506146f8826146b7565b600282019050919050565b6000819050919050565b61471e61471982613082565b614703565b82525050565b600061472f826146e0565b915061473b828561470d565b60208201915061474b828461470d565b6020820191508190509392505050565b60006080820190506147706000830187613728565b61477d6020830186613e56565b61478a6040830185613728565b6147976060830184613728565b95945050505050565b7f45434453413a20696e76616c6964207369676e61747572650000000000000000600082015250565b60006147d6601883612bd3565b91506147e1826147a0565b602082019050919050565b60006020820190508181036000830152614805816147c9565b9050919050565b7f45434453413a20696e76616c6964207369676e6174757265206c656e67746800600082015250565b6000614842601f83612bd3565b915061484d8261480c565b602082019050919050565b6000602082019050818103600083015261487181614835565b9050919050565b7f45434453413a20696e76616c6964207369676e6174757265202773272076616c60008201527f7565000000000000000000000000000000000000000000000000000000000000602082015250565b60006148d4602283612bd3565b91506148df82614878565b604082019050919050565b60006020820190508181036000830152614903816148c7565b9050919050565b7f45434453413a20696e76616c6964207369676e6174757265202776272076616c60008201527f7565000000000000000000000000000000000000000000000000000000000000602082015250565b6000614966602283612bd3565b91506149718261490a565b604082019050919050565b6000602082019050818103600083015261499581614959565b9050919050565b7f476f7665726e6f72566f74696e6753696d706c653a20766f746520616c72656160008201527f6479206361737400000000000000000000000000000000000000000000000000602082015250565b60006149f8602783612bd3565b9150614a038261499c565b604082019050919050565b60006020820190508181036000830152614a27816149eb565b9050919050565b7f476f7665726e6f72566f74696e6753696d706c653a20696e76616c696420766160008201527f6c756520666f7220656e756d20566f7465547970650000000000000000000000602082015250565b6000614a8a603583612bd3565b9150614a9582614a2e565b604082019050919050565b60006020820190508181036000830152614ab981614a7d565b9050919050565b7f476f7665726e6f723a20756e6b6e6f776e2070726f706f73616c206964000000600082015250565b6000614af6601d83612bd3565b9150614b0182614ac0565b602082019050919050565b60006020820190508181036000830152614b2581614ae9565b9050919050565b7f53616665436173743a2076616c756520646f65736e27742066697420696e203660008201527f3420626974730000000000000000000000000000000000000000000000000000602082015250565b6000614b88602683612bd3565b9150614b9382614b2c565b604082019050919050565b60006020820190508181036000830152614bb781614b7b565b9050919050565b7f416464726573733a20696e73756666696369656e742062616c616e636520666f60008201527f722063616c6c0000000000000000000000000000000000000000000000000000602082015250565b6000614c1a602683612bd3565b9150614c2582614bbe565b604082019050919050565b60006020820190508181036000830152614c4981614c0d565b9050919050565b7f416464726573733a2063616c6c20746f206e6f6e2d636f6e7472616374000000600082015250565b6000614c86601d83612bd3565b9150614c9182614c50565b602082019050919050565b60006020820190508181036000830152614cb581614c79565b9050919050565b600081905092915050565b6000614cd282613b55565b614cdc8185614cbc565b9350614cec818560208601612be4565b80840191505092915050565b6000614d048284614cc7565b915081905092915050565b600060a082019050614d246000830188613728565b614d316020830187613728565b614d3e6040830186613728565b614d4b6060830185612b45565b614d5860808301846136fe565b969550505050505056fe416464726573733a206c6f772d6c6576656c2063616c6c20776974682076616c7565206661696c6564a2646970667358221220a5f1e6f6b9620ba498b28b71f31d33a5e98a23f2a3d849c3470fc668c3a581db64736f6c63430008090033",
  "devdoc": {
    "kind": "dev",
    "methods": {
      "COUNTING_MODE()": {
        "details": "See {IGovernor-COUNTING_MODE}."
      },
      "castVote(uint256,uint8)": {
        "details": "See {IGovernor-castVote}."
      },
      "castVoteBySig(uint256,uint8,uint8,bytes32,bytes32)": {
        "details": "See {IGovernor-castVoteBySig}."
      },
      "castVoteWithReason(uint256,uint8,string)": {
        "details": "See {IGovernor-castVoteWithReason}."
      },
      "execute(address[],uint256[],bytes[],bytes32)": {
        "details": "See {IGovernor-execute}."
      },
      "hasVoted(uint256,address)": {
        "details": "See {IGovernor-hasVoted}."
      },
      "hashProposal(address[],uint256[],bytes[],bytes32)": {
        "details": "See {IGovernor-hashProposal}. The proposal id is produced by hashing the RLC encoded `targets` array, the `values` array, the `calldatas` array and the descriptionHash (bytes32 which itself is the keccak256 hash of the description string). This proposal id can be produced from the proposal data which is part of the {ProposalCreated} event. It can even be computed in advance, before the proposal is submitted. Note that the chainId and the governor address are not part of the proposal id computation. Consequently, the same proposal (with same operation and same description) will have the same id if submitted on multiple governors accross multiple networks. This also means that in order to execute the same operation twice (on the same governor) the proposer will have to change the description in order to avoid proposal id conflicts."
      },
      "name()": {
        "details": "See {IGovernor-name}."
      },
      "proposalDeadline(uint256)": {
        "details": "See {IGovernor-proposalDeadline}."
      },
      "proposalEta(uint256)": {
        "details": "Public accessor to check the eta of a queued proposal"
      },
      "proposalSnapshot(uint256)": {
        "details": "See {IGovernor-proposalSnapshot}."
      },
      "proposalThreshold()": {
        "details": "Part of the Governor Bravo's interface: _\"The number of votes required in order for a voter to become a proposer\"_."
      },
      "proposalVotes(uint256)": {
        "details": "Accessor to the internal vote counts."
      },
      "queue(address[],uint256[],bytes[],bytes32)": {
        "details": "Function to queue a proposal to the timelock."
      },
      "quorumDenominator()": {
        "details": "Returns the quorum denominator. Defaults to 100, but may be overridden."
      },
      "quorumNumerator()": {
        "details": "Returns the current quorum numerator. See {quorumDenominator}."
      },
      "relay(address,uint256,bytes)": {
        "details": "Relays a transaction or function call to an arbitrary target. In cases where the governance executor is some contract other than the governor itself, like when using a timelock, this function can be invoked in a governance proposal to recover tokens or Ether that was sent to the governor contract by mistake. Note that if the executor is simply the governor itself, use of `relay` is redundant."
      },
      "timelock()": {
        "details": "Public accessor to check the address of the timelock"
      },
      "updateQuorumNumerator(uint256)": {
        "details": "Changes the quorum numerator. Emits a {QuorumNumeratorUpdated} event. Requirements: - Must be called through a governance proposal. - New numerator must be smaller or equal to the denominator."
      },
      "updateTimelock(address)": {
        "details": "Public endpoint to update the underlying timelock instance. Restricted to the timelock itself, so updates must be proposed, scheduled, and executed through governance proposals. CAUTION: It is not recommended to change the timelock while there are other queued governance proposals."
      },
      "version()": {
        "details": "See {IGovernor-version}."
      },
      "votingDelay()": {
        "details": "Delay, in number of block, between the proposal is created and the vote starts. This can be increassed to leave time for users to buy voting power, of delegate it, before the voting of a proposal starts."
      },
      "votingPeriod()": {
        "details": "Delay, in number of blocks, between the vote start and vote ends. NOTE: The {votingDelay} can delay the start of the vote. This must be considered when setting the voting duration compared to the voting delay."
      }
    },
    "version": 1
  },
  "userdoc": {
    "kind": "user",
    "methods": {
      "votingDelay()": {
        "notice": "module:user-config"
      },
      "votingPeriod()": {
        "notice": "module:user-config"
      }
    },
    "version": 1
  },
  "storageLayout": {
    "storage": [
      {
        "astId": 530,
        "contract": "contracts/governance_standard/GovernorContract.sol:GovernorContract",
        "label": "_name",
        "offset": 0,
        "slot": "0",
        "type": "t_string_storage"
      },
      {
        "astId": 535,
        "contract": "contracts/governance_standard/GovernorContract.sol:GovernorContract",
        "label": "_proposals",
        "offset": 0,
        "slot": "1",
        "type": "t_mapping(t_uint256,t_struct(ProposalCore)528_storage)"
      },
      {
        "astId": 2382,
        "contract": "contracts/governance_standard/GovernorContract.sol:GovernorContract",
        "label": "_proposalVotes",
        "offset": 0,
        "slot": "2",
        "type": "t_mapping(t_uint256,t_struct(ProposalVote)2377_storage)"
      },
      {
        "astId": 3005,
        "contract": "contracts/governance_standard/GovernorContract.sol:GovernorContract",
        "label": "_quorumNumerator",
        "offset": 0,
        "slot": "3",
        "type": "t_uint256"
      },
      {
        "astId": 2593,
        "contract": "contracts/governance_standard/GovernorContract.sol:GovernorContract",
        "label": "_timelock",
        "offset": 0,
        "slot": "4",
        "type": "t_contract(TimelockController)2356"
      },
      {
        "astId": 2597,
        "contract": "contracts/governance_standard/GovernorContract.sol:GovernorContract",
        "label": "_timelockIds",
        "offset": 0,
        "slot": "5",
        "type": "t_mapping(t_uint256,t_bytes32)"
      },
      {
        "astId": 6778,
        "contract": "contracts/governance_standard/GovernorContract.sol:GovernorContract",
        "label": "s_votingDelay",
        "offset": 0,
        "slot": "6",
        "type": "t_uint256"
      },
      {
        "astId": 6780,
        "contract": "contracts/governance_standard/GovernorContract.sol:GovernorContract",
        "label": "s_votingPeriod",
        "offset": 0,
        "slot": "7",
        "type": "t_uint256"
      }
    ],
    "types": {
      "t_address": {
        "encoding": "inplace",
        "label": "address",
        "numberOfBytes": "20"
      },
      "t_bool": {
        "encoding": "inplace",
        "label": "bool",
        "numberOfBytes": "1"
      },
      "t_bytes32": {
        "encoding": "inplace",
        "label": "bytes32",
        "numberOfBytes": "32"
      },
      "t_contract(TimelockController)2356": {
        "encoding": "inplace",
        "label": "contract TimelockController",
        "numberOfBytes": "20"
      },
      "t_mapping(t_address,t_bool)": {
        "encoding": "mapping",
        "key": "t_address",
        "label": "mapping(address => bool)",
        "numberOfBytes": "32",
        "value": "t_bool"
      },
      "t_mapping(t_uint256,t_bytes32)": {
        "encoding": "mapping",
        "key": "t_uint256",
        "label": "mapping(uint256 => bytes32)",
        "numberOfBytes": "32",
        "value": "t_bytes32"
      },
      "t_mapping(t_uint256,t_struct(ProposalCore)528_storage)": {
        "encoding": "mapping",
        "key": "t_uint256",
        "label": "mapping(uint256 => struct Governor.ProposalCore)",
        "numberOfBytes": "32",
        "value": "t_struct(ProposalCore)528_storage"
      },
      "t_mapping(t_uint256,t_struct(ProposalVote)2377_storage)": {
        "encoding": "mapping",
        "key": "t_uint256",
        "label": "mapping(uint256 => struct GovernorCountingSimple.ProposalVote)",
        "numberOfBytes": "32",
        "value": "t_struct(ProposalVote)2377_storage"
      },
      "t_string_storage": {
        "encoding": "bytes",
        "label": "string",
        "numberOfBytes": "32"
      },
      "t_struct(BlockNumber)5461_storage": {
        "encoding": "inplace",
        "label": "struct Timers.BlockNumber",
        "members": [
          {
            "astId": 5460,
            "contract": "contracts/governance_standard/GovernorContract.sol:GovernorContract",
            "label": "_deadline",
            "offset": 0,
            "slot": "0",
            "type": "t_uint64"
          }
        ],
        "numberOfBytes": "32"
      },
      "t_struct(ProposalCore)528_storage": {
        "encoding": "inplace",
        "label": "struct Governor.ProposalCore",
        "members": [
          {
            "astId": 520,
            "contract": "contracts/governance_standard/GovernorContract.sol:GovernorContract",
            "label": "voteStart",
            "offset": 0,
            "slot": "0",
            "type": "t_struct(BlockNumber)5461_storage"
          },
          {
            "astId": 523,
            "contract": "contracts/governance_standard/GovernorContract.sol:GovernorContract",
            "label": "voteEnd",
            "offset": 0,
            "slot": "1",
            "type": "t_struct(BlockNumber)5461_storage"
          },
          {
            "astId": 525,
            "contract": "contracts/governance_standard/GovernorContract.sol:GovernorContract",
            "label": "executed",
            "offset": 0,
            "slot": "2",
            "type": "t_bool"
          },
          {
            "astId": 527,
            "contract": "contracts/governance_standard/GovernorContract.sol:GovernorContract",
            "label": "canceled",
            "offset": 1,
            "slot": "2",
            "type": "t_bool"
          }
        ],
        "numberOfBytes": "96"
      },
      "t_struct(ProposalVote)2377_storage": {
        "encoding": "inplace",
        "label": "struct GovernorCountingSimple.ProposalVote",
        "members": [
          {
            "astId": 2368,
            "contract": "contracts/governance_standard/GovernorContract.sol:GovernorContract",
            "label": "againstVotes",
            "offset": 0,
            "slot": "0",
            "type": "t_uint256"
          },
          {
            "astId": 2370,
            "contract": "contracts/governance_standard/GovernorContract.sol:GovernorContract",
            "label": "forVotes",
            "offset": 0,
            "slot": "1",
            "type": "t_uint256"
          },
          {
            "astId": 2372,
            "contract": "contracts/governance_standard/GovernorContract.sol:GovernorContract",
            "label": "abstainVotes",
            "offset": 0,
            "slot": "2",
            "type": "t_uint256"
          },
          {
            "astId": 2376,
            "contract": "contracts/governance_standard/GovernorContract.sol:GovernorContract",
            "label": "hasVoted",
            "offset": 0,
            "slot": "3",
            "type": "t_mapping(t_address,t_bool)"
          }
        ],
        "numberOfBytes": "128"
      },
      "t_uint256": {
        "encoding": "inplace",
        "label": "uint256",
        "numberOfBytes": "32"
      },
      "t_uint64": {
        "encoding": "inplace",
        "label": "uint64",
        "numberOfBytes": "8"
      }
    }
  }
}