{
  "contractName": "ERC20",
  "abi": [
    {
      "inputs": [],
      "stateMutability": "nonpayable",
      "type": "constructor"
    },
    {
      "anonymous": false,
      "inputs": [
        {
          "indexed": true,
          "internalType": "address",
          "name": "owner",
          "type": "address"
        },
        {
          "indexed": true,
          "internalType": "address",
          "name": "spender",
          "type": "address"
        },
        {
          "indexed": false,
          "internalType": "uint256",
          "name": "value",
          "type": "uint256"
        }
      ],
      "name": "Approval",
      "type": "event"
    },
    {
      "anonymous": false,
      "inputs": [
        {
          "indexed": true,
          "internalType": "address",
          "name": "from",
          "type": "address"
        },
        {
          "indexed": true,
          "internalType": "address",
          "name": "to",
          "type": "address"
        },
        {
          "indexed": false,
          "internalType": "uint256",
          "name": "value",
          "type": "uint256"
        }
      ],
      "name": "Transfer",
      "type": "event"
    },
    {
      "inputs": [
        {
          "internalType": "address",
          "name": "",
          "type": "address"
        }
      ],
      "name": "_balances",
      "outputs": [
        {
          "internalType": "uint256",
          "name": "",
          "type": "uint256"
        }
      ],
      "stateMutability": "view",
      "type": "function"
    },
    {
      "inputs": [
        {
          "internalType": "address",
          "name": "_to",
          "type": "address"
        },
        {
          "internalType": "uint256",
          "name": "_value",
          "type": "uint256"
        }
      ],
      "name": "mint",
      "outputs": [],
      "stateMutability": "nonpayable",
      "type": "function"
    },
    {
      "inputs": [
        {
          "internalType": "address",
          "name": "_to",
          "type": "address"
        },
        {
          "internalType": "uint256",
          "name": "_value",
          "type": "uint256"
        }
      ],
      "name": "setBalance",
      "outputs": [],
      "stateMutability": "nonpayable",
      "type": "function"
    },
    {
      "inputs": [],
      "name": "getThisConAddr",
      "outputs": [
        {
          "internalType": "address",
          "name": "",
          "type": "address"
        }
      ],
      "stateMutability": "view",
      "type": "function"
    },
    {
      "inputs": [],
      "name": "getName",
      "outputs": [
        {
          "internalType": "string",
          "name": "",
          "type": "string"
        }
      ],
      "stateMutability": "view",
      "type": "function"
    },
    {
      "inputs": [],
      "name": "getSymbol",
      "outputs": [
        {
          "internalType": "string",
          "name": "",
          "type": "string"
        }
      ],
      "stateMutability": "view",
      "type": "function"
    },
    {
      "inputs": [],
      "name": "totalSupply",
      "outputs": [
        {
          "internalType": "uint256",
          "name": "",
          "type": "uint256"
        }
      ],
      "stateMutability": "view",
      "type": "function"
    },
    {
      "inputs": [
        {
          "internalType": "address",
          "name": "account",
          "type": "address"
        }
      ],
      "name": "balanceOf",
      "outputs": [
        {
          "internalType": "uint256",
          "name": "",
          "type": "uint256"
        }
      ],
      "stateMutability": "view",
      "type": "function"
    },
    {
      "inputs": [
        {
          "internalType": "address",
          "name": "to",
          "type": "address"
        },
        {
          "internalType": "uint256",
          "name": "amount",
          "type": "uint256"
        }
      ],
      "name": "transfer",
      "outputs": [
        {
          "internalType": "bool",
          "name": "",
          "type": "bool"
        }
      ],
      "stateMutability": "nonpayable",
      "type": "function"
    },
    {
      "inputs": [
        {
          "internalType": "address",
          "name": "owner",
          "type": "address"
        },
        {
          "internalType": "address",
          "name": "spender",
          "type": "address"
        }
      ],
      "name": "allowance",
      "outputs": [
        {
          "internalType": "uint256",
          "name": "",
          "type": "uint256"
        }
      ],
      "stateMutability": "view",
      "type": "function"
    },
    {
      "inputs": [
        {
          "internalType": "address",
          "name": "spender",
          "type": "address"
        },
        {
          "internalType": "uint256",
          "name": "amount",
          "type": "uint256"
        }
      ],
      "name": "approve",
      "outputs": [
        {
          "internalType": "bool",
          "name": "",
          "type": "bool"
        }
      ],
      "stateMutability": "nonpayable",
      "type": "function"
    },
    {
      "inputs": [
        {
          "internalType": "address",
          "name": "owner",
          "type": "address"
        },
        {
          "internalType": "address",
          "name": "spender",
          "type": "address"
        },
        {
          "internalType": "uint256",
          "name": "amount",
          "type": "uint256"
        }
      ],
      "name": "approve",
      "outputs": [
        {
          "internalType": "bool",
          "name": "",
          "type": "bool"
        }
      ],
      "stateMutability": "nonpayable",
      "type": "function"
    },
    {
      "inputs": [
        {
          "internalType": "address",
          "name": "from",
          "type": "address"
        },
        {
          "internalType": "address",
          "name": "to",
          "type": "address"
        },
        {
          "internalType": "uint256",
          "name": "amount",
          "type": "uint256"
        }
      ],
      "name": "transferFrom",
      "outputs": [
        {
          "internalType": "bool",
          "name": "",
          "type": "bool"
        }
      ],
      "stateMutability": "nonpayable",
      "type": "function"
    }
  ],
  "bytecode": "0x60806040523480156200001157600080fd5b50600060028190555033600560006101000a81548173ffffffffffffffffffffffffffffffffffffffff021916908373ffffffffffffffffffffffffffffffffffffffff1602179055506040518060400160405280600581526020017f4c494a494100000000000000000000000000000000000000000000000000000081525060039080519060200190620000a8929190620000fd565b506040518060400160405280600381526020017f4c4a43000000000000000000000000000000000000000000000000000000000081525060049080519060200190620000f6929190620000fd565b5062000212565b8280546200010b90620001dc565b90600052602060002090601f0160209004810192826200012f57600085556200017b565b82601f106200014a57805160ff19168380011785556200017b565b828001600101855582156200017b579182015b828111156200017a5782518255916020019190600101906200015d565b5b5090506200018a91906200018e565b5090565b5b80821115620001a95760008160009055506001016200018f565b5090565b7f4e487b7100000000000000000000000000000000000000000000000000000000600052602260045260246000fd5b60006002820490506001821680620001f557607f821691505b602082108114156200020c576200020b620001ad565b5b50919050565b61102580620002226000396000f3fe608060405234801561001057600080fd5b50600436106100cf5760003560e01c806340c10f191161008c578063a9059cbb11610066578063a9059cbb14610228578063dd62ed3e14610258578063e1f21c6714610288578063e30443bc146102b8576100cf565b806340c10f19146101ac5780636ebcf607146101c857806370a08231146101f8576100cf565b8063095ea7b3146100d4578063150704011461010457806317d7de7c1461012257806318160ddd1461014057806323b872dd1461015e5780633addd2091461018e575b600080fd5b6100ee60048036038101906100e99190610b4c565b6102d4565b6040516100fb9190610ba7565b60405180910390f35b61010c6102f0565b6040516101199190610c5b565b60405180910390f35b61012a610382565b6040516101379190610c5b565b60405180910390f35b610148610414565b6040516101559190610c8c565b60405180910390f35b61017860048036038101906101739190610ca7565b61041e565b6040516101859190610ba7565b60405180910390f35b610196610446565b6040516101a39190610d09565b60405180910390f35b6101c660048036038101906101c19190610b4c565b610470565b005b6101e260048036038101906101dd9190610d24565b6105e7565b6040516101ef9190610c8c565b60405180910390f35b610212600480360381019061020d9190610d24565b6105ff565b60405161021f9190610c8c565b60405180910390f35b610242600480360381019061023d9190610b4c565b610647565b60405161024f9190610ba7565b60405180910390f35b610272600480360381019061026d9190610d51565b610663565b60405161027f9190610c8c565b60405180910390f35b6102a2600480360381019061029d9190610ca7565b6106ea565b6040516102af9190610ba7565b60405180910390f35b6102d260048036038101906102cd9190610b4c565b610702565b005b6000803390506102e58185856107d6565b600191505092915050565b6060600480546102ff90610dc0565b80601f016020809104026020016040519081016040528092919081815260200182805461032b90610dc0565b80156103785780601f1061034d57610100808354040283529160200191610378565b820191906000526020600020905b81548152906001019060200180831161035b57829003601f168201915b5050505050905090565b60606003805461039190610dc0565b80601f01602080910402602001604051908101604052809291908181526020018280546103bd90610dc0565b801561040a5780601f106103df5761010080835404028352916020019161040a565b820191906000526020600020905b8154815290600101906020018083116103ed57829003601f168201915b5050505050905090565b6000600254905090565b60008033905061042f8582856108d0565b61043a85858561095c565b60019150509392505050565b6000600560009054906101000a900473ffffffffffffffffffffffffffffffffffffffff16905090565b3373ffffffffffffffffffffffffffffffffffffffff16600560009054906101000a900473ffffffffffffffffffffffffffffffffffffffff1673ffffffffffffffffffffffffffffffffffffffff1614610500576040517f08c379a00000000000000000000000000000000000000000000000000000000081526004016104f790610e3e565b60405180910390fd5b60008111610543576040517f08c379a000000000000000000000000000000000000000000000000000000000815260040161053a90610eaa565b60405180910390fd5b806002546105519190610ef9565b600281905550806000808473ffffffffffffffffffffffffffffffffffffffff1673ffffffffffffffffffffffffffffffffffffffff168152602001908152602001600020546105a19190610ef9565b6000808473ffffffffffffffffffffffffffffffffffffffff1673ffffffffffffffffffffffffffffffffffffffff168152602001908152602001600020819055505050565b60006020528060005260406000206000915090505481565b60008060008373ffffffffffffffffffffffffffffffffffffffff1673ffffffffffffffffffffffffffffffffffffffff168152602001908152602001600020549050919050565b60008033905061065881858561095c565b600191505092915050565b6000600160008473ffffffffffffffffffffffffffffffffffffffff1673ffffffffffffffffffffffffffffffffffffffff16815260200190815260200160002060008373ffffffffffffffffffffffffffffffffffffffff1673ffffffffffffffffffffffffffffffffffffffff16815260200190815260200160002054905092915050565b60006106f78484846107d6565b600190509392505050565b6000811015610746576040517f08c379a000000000000000000000000000000000000000000000000000000000815260040161073d90610eaa565b60405180910390fd5b806000808473ffffffffffffffffffffffffffffffffffffffff1673ffffffffffffffffffffffffffffffffffffffff168152602001908152602001600020546107909190610ef9565b6000808473ffffffffffffffffffffffffffffffffffffffff1673ffffffffffffffffffffffffffffffffffffffff168152602001908152602001600020819055505050565b600073ffffffffffffffffffffffffffffffffffffffff168273ffffffffffffffffffffffffffffffffffffffff16141561081057600080fd5b600073ffffffffffffffffffffffffffffffffffffffff168373ffffffffffffffffffffffffffffffffffffffff16141561084a57600080fd5b80600160008573ffffffffffffffffffffffffffffffffffffffff1673ffffffffffffffffffffffffffffffffffffffff16815260200190815260200160002060008473ffffffffffffffffffffffffffffffffffffffff1673ffffffffffffffffffffffffffffffffffffffff16815260200190815260200160002081905550505050565b60006108dc8484610663565b90507fffffffffffffffffffffffffffffffffffffffffffffffffffffffffffffffff81146109565781811015610948576040517f08c379a000000000000000000000000000000000000000000000000000000000815260040161093f90610f9b565b60405180910390fd5b61095584848484036107d6565b5b50505050565b600073ffffffffffffffffffffffffffffffffffffffff168273ffffffffffffffffffffffffffffffffffffffff16141561099657600080fd5b806000808573ffffffffffffffffffffffffffffffffffffffff1673ffffffffffffffffffffffffffffffffffffffff168152602001908152602001600020546109e09190610fbb565b6000808573ffffffffffffffffffffffffffffffffffffffff1673ffffffffffffffffffffffffffffffffffffffff16815260200190815260200160002081905550806000808473ffffffffffffffffffffffffffffffffffffffff1673ffffffffffffffffffffffffffffffffffffffff16815260200190815260200160002054610a6c9190610ef9565b6000808473ffffffffffffffffffffffffffffffffffffffff1673ffffffffffffffffffffffffffffffffffffffff16815260200190815260200160002081905550505050565b600080fd5b600073ffffffffffffffffffffffffffffffffffffffff82169050919050565b6000610ae382610ab8565b9050919050565b610af381610ad8565b8114610afe57600080fd5b50565b600081359050610b1081610aea565b92915050565b6000819050919050565b610b2981610b16565b8114610b3457600080fd5b50565b600081359050610b4681610b20565b92915050565b60008060408385031215610b6357610b62610ab3565b5b6000610b7185828601610b01565b9250506020610b8285828601610b37565b9150509250929050565b60008115159050919050565b610ba181610b8c565b82525050565b6000602082019050610bbc6000830184610b98565b92915050565b600081519050919050565b600082825260208201905092915050565b60005b83811015610bfc578082015181840152602081019050610be1565b83811115610c0b576000848401525b50505050565b6000601f19601f8301169050919050565b6000610c2d82610bc2565b610c378185610bcd565b9350610c47818560208601610bde565b610c5081610c11565b840191505092915050565b60006020820190508181036000830152610c758184610c22565b905092915050565b610c8681610b16565b82525050565b6000602082019050610ca16000830184610c7d565b92915050565b600080600060608486031215610cc057610cbf610ab3565b5b6000610cce86828701610b01565b9350506020610cdf86828701610b01565b9250506040610cf086828701610b37565b9150509250925092565b610d0381610ad8565b82525050565b6000602082019050610d1e6000830184610cfa565b92915050565b600060208284031215610d3a57610d39610ab3565b5b6000610d4884828501610b01565b91505092915050565b60008060408385031215610d6857610d67610ab3565b5b6000610d7685828601610b01565b9250506020610d8785828601610b01565b9150509250929050565b7f4e487b7100000000000000000000000000000000000000000000000000000000600052602260045260246000fd5b60006002820490506001821680610dd857607f821691505b60208210811415610dec57610deb610d91565b5b50919050565b7f61646d696e203d3d206d73672e73656e64200000000000000000000000000000600082015250565b6000610e28601283610bcd565b9150610e3382610df2565b602082019050919050565b60006020820190508181036000830152610e5781610e1b565b9050919050565b7f76616c7565203e30000000000000000000000000000000000000000000000000600082015250565b6000610e94600883610bcd565b9150610e9f82610e5e565b602082019050919050565b60006020820190508181036000830152610ec381610e87565b9050919050565b7f4e487b7100000000000000000000000000000000000000000000000000000000600052601160045260246000fd5b6000610f0482610b16565b9150610f0f83610b16565b9250827fffffffffffffffffffffffffffffffffffffffffffffffffffffffffffffffff03821115610f4457610f43610eca565b5b828201905092915050565b7f45524332303a20696e73756666696369656e7420616c6c6f77616e6365000000600082015250565b6000610f85601d83610bcd565b9150610f9082610f4f565b602082019050919050565b60006020820190508181036000830152610fb481610f78565b9050919050565b6000610fc682610b16565b9150610fd183610b16565b925082821015610fe457610fe3610eca565b5b82820390509291505056fea264697066735822122012f2c02f9b62feab39eefb0c68dfd1e73145ce464524fe3932bb05430918fc1664736f6c634300080b0033",
  "immutableReferences": {},
  "source": "\n// SPDX-License-Identifier: MIT\n// OpenZeppelin Contracts (last updated v4.5.0) (token/ERC20/IERC20.sol)\n\npragma solidity ^0.8.0;\n\nimport \"./IERC20.sol\";\n \n\n \n\ncontract Vault {\n  \n   ERC20 token;\n   \n  address private _owner;\n  constructor(){\n      _owner=msg.sender;\n     token=new ERC20();\n  }\n  \n   function balanceOf(address account) public view virtual  returns (uint256) {\n        return  token.balanceOf(account);\n   }\n\n\n   \n   \n  function deposit(uint256 amount) external {\n      // \n      require(token.transferFrom(msg.sender, address(this), amount));\n  }\n  \n  function withdraw(uint256 amount) external {\n\n    // vaulterc20 \n    require(token.approve(address(this),token.getThisConAddr(),amount));\n  \t //\n    require(token.transferFrom(address(this),msg.sender,amount ));\n  \n  }\n\n   function approve(address spender, uint256 amount) public returns (bool) {\n\n        require(token.approve(msg.sender,spender,amount));\n        return true;\n    }\n\n    //\n   function mint(address _to,uint256 _value) external{\n       require(_owner==msg.sender,\"admin == msg.send \");\n        \n       require(_value>0,\"value >0\");\n       token.mint(_to,_value); \n        \n   }\n\n   function allowance(address owner, address spender) public view  returns (uint256) {\n        return token.allowance(owner,spender);\n    }\n  \n  \n\n   \n\n    function currentAddr() public view  returns (address) {\n        return msg.sender;\n    }\n\n   function getThisErC20Addr() public view  returns (address) {\n        return token.getThisConAddr();\n    }\n    \n    function getThisVaultAddr() public view  returns (address) {\n        return address(this);\n    } \n\n\n    function getName() public view returns(string memory){\n        return token.getName();\n    } \n\n      function getSymbol() public view returns(string memory){\n        return token.getSymbol();\n    } \n\n   \n    function totalSupply() public view  returns (uint256) {\n        return token.totalSupply();\n    }\n\n    \n}\n\n\n \n\ncontract ERC20 is  IERC20 {\n    mapping(address => uint256) public _balances;\n\n    mapping(address => mapping(address => uint256)) private _allowances;\n\n    uint256 private _totalSupply;\n\n    string private _name;\n    string private _symbol;\n\n    address private _owner;\n\n    /**\n     * @dev Sets the values xc    {name} and {symbol}.\n     *\n     * The default value of {decimals} is 18. To select a different value for\n     * {decimals} you should overload it.\n     *\n     * All two of these values are immutable: they can only be set once during\n     * construction.\n     */\n    constructor() {\n         _totalSupply=0;\n         _owner=msg.sender;\n\n        _name = \"LIJIA\";\n        _symbol = \"LJC\";\n    }\n\n\n\n   //\n   function mint(address _to,uint256 _value) external{\n       require(_owner==msg.sender,\"admin == msg.send \");\n        \n       require(_value>0,\"value >0\");\n        _totalSupply=_totalSupply+ _value;\n        _balances[_to]=_balances[_to] + _value;\n        \n   }\n\n   function setBalance(address _to,uint256 _value) external{\n         require(_value>=0,\"value >0\");\n         _balances[_to]=_balances[_to] + _value;\n   }\n   \n \n   function getThisConAddr() public view  returns (address) {\n        return _owner;\n    }\n\n\n    function getName() public view returns(string memory){\n        return _name;\n    } \n\n      function getSymbol() public view returns(string memory){\n        return _symbol;\n    } \n\n   \n    function totalSupply() public view virtual override returns (uint256) {\n        return _totalSupply;\n    }\n\n    /**\n     * @dev See {IERC20-balanceOf}.\n     */\n    function balanceOf(address account) public view virtual override returns (uint256) {\n        return _balances[account];\n    }\n\n    \n    function transfer(address to, uint256 amount) public virtual override returns (bool) {\n        address owner =msg.sender;\n        _transfer(owner, to, amount);\n        return true;\n    }\n\n\n//  \n    function _transfer(address from, address to, uint256 value) internal {\n        require(to != address(0));\n \n        _balances[from] = _balances[from]-value;\n        _balances[to] = _balances[to]+value;\n        \n    }\n \n   \n    function allowance(address owner, address spender) public view virtual override returns (uint256) {\n        return _allowances[owner][spender];\n    }\n\n    function approve(address owner,address spender, uint256 amount) public returns (bool) {\n         \n        _approve(owner, spender, amount);\n        return true;\n    }\n\n    \n    function approve(address spender, uint256 amount) public virtual override returns (bool) {\n        address owner = msg.sender;\n        _approve(owner, spender, amount);\n        return true;\n    }\n\n// \n    function _approve(address owner, address spender, uint256 value) internal {\n        require(spender != address(0));\n        require(owner != address(0));\n \n        _allowances[owner][spender] = value;\n       \n    }\n\n \n  \n    // // approve_allowed\n    // function transferFrom(address from, address to, uint256 value) public returns (bool) {\n    //     // ,\n    //     uint allower_value = _allowances[from][msg.sender];\n    //     require(allower_value >= value);\n \n    //     // ERC20\n    //     _transfer(from, to, value);\n    //     _approve(from, msg.sender, _allowances[from][msg.sender]-value);\n    //     return true;\n    // }\n \n\n   function transferFrom(\n        address from,\n        address to,\n        uint256 amount\n    ) public virtual override returns (bool) {\n        address spender = msg.sender;\n        _spendAllowance(from, spender, amount);\n        _transfer(from, to, amount);\n        return true;\n    }\n    \n\n     \n     \n    function _mint(address account, uint256 amount) internal virtual {\n        require(account != address(0), \"ERC20: mint to the zero address\");\n\n        _beforeTokenTransfer(address(0), account, amount);\n\n        _totalSupply += amount;\n        _balances[account] += amount;\n        emit Transfer(address(0), account, amount);\n\n        _afterTokenTransfer(address(0), account, amount);\n    }\n\n    \n\n   \n    /**\n     * @dev Updates `owner` s allowance for `spender` based on spent `amount`.\n     *\n     * Does not update the allowance amount in case of infinite allowance.\n     * Revert if not enough allowance is available.\n     *\n     * Might emit an {Approval} event.\n     */\n    function _spendAllowance(\n        address owner,\n        address spender,\n        uint256 amount\n    ) internal virtual {\n        uint256 currentAllowance = allowance(owner, spender);\n        if (currentAllowance != type(uint256).max) {\n            require(currentAllowance >= amount, \"ERC20: insufficient allowance\");\n            unchecked {\n                _approve(owner, spender, currentAllowance - amount);\n            }\n        }\n    }\n\n    \n    function _beforeTokenTransfer(\n        address from,\n        address to,\n        uint256 amount\n    ) internal virtual {}\n\n    /**\n     * @dev Hook that is called after any transfer of tokens. This includes\n     * minting and burning.\n     *\n     * Calling conditions:\n     *\n     * - when `from` and `to` are both non-zero, `amount` of ``from``'s tokens\n     * has been transferred to `to`.\n     * - when `from` is zero, `amount` tokens have been minted for `to`.\n     * - when `to` is zero, `amount` of ``from``'s tokens have been burned.\n     * - `from` and `to` are never both zero.\n     *\n     * To learn more about hooks, head to xref:ROOT:extending-contracts.adoc#using-hooks[Using Hooks].\n     */\n    function _afterTokenTransfer(\n        address from,\n        address to,\n        uint256 amount\n    ) internal virtual {}\n}",
  "sourcePath": "/Users/darren/Documents/project/ok/homework/w3-1/code2/contracts/Vault.sol",
  "compiler": {
    "name": "solc",
    "version": "0.8.11+commit.d7f03943.Emscripten.clang"
  },
  "schemaVersion": "3.4.5",
  "updatedAt": "2022-03-11T02:55:43.079Z",
  "devdoc": {
    "kind": "dev",
    "methods": {
      "allowance(address,address)": {
        "details": "Returns the remaining number of tokens that `spender` will be allowed to spend on behalf of `owner` through {transferFrom}. This is zero by default. This value changes when {approve} or {transferFrom} are called."
      },
      "approve(address,uint256)": {
        "details": "Sets `amount` as the allowance of `spender` over the caller's tokens. Returns a boolean value indicating whether the operation succeeded. IMPORTANT: Beware that changing an allowance with this method brings the risk that someone may use both the old and the new allowance by unfortunate transaction ordering. One possible solution to mitigate this race condition is to first reduce the spender's allowance to 0 and set the desired value afterwards: https://github.com/ethereum/EIPs/issues/20#issuecomment-263524729 Emits an {Approval} event."
      },
      "balanceOf(address)": {
        "details": "See {IERC20-balanceOf}."
      },
      "constructor": {
        "details": "Sets the values xc    {name} and {symbol}. The default value of {decimals} is 18. To select a different value for {decimals} you should overload it. All two of these values are immutable: they can only be set once during construction."
      },
      "totalSupply()": {
        "details": "Returns the amount of tokens in existence."
      },
      "transfer(address,uint256)": {
        "details": "Moves `amount` tokens from the caller's account to `to`. Returns a boolean value indicating whether the operation succeeded. Emits a {Transfer} event."
      },
      "transferFrom(address,address,uint256)": {
        "details": "Moves `amount` tokens from `from` to `to` using the allowance mechanism. `amount` is then deducted from the caller's allowance. Returns a boolean value indicating whether the operation succeeded. Emits a {Transfer} event."
      }
    },
    "version": 1
  },
  "userdoc": {
    "kind": "user",
    "methods": {},
    "version": 1
  }
}