{
  "contractName": "Vault",
  "abi": [
    {
      "inputs": [],
      "stateMutability": "nonpayable",
      "type": "constructor"
    },
    {
      "inputs": [
        {
          "internalType": "address",
          "name": "account",
          "type": "address"
        }
      ],
      "name": "balanceOf",
      "outputs": [
        {
          "internalType": "uint256",
          "name": "",
          "type": "uint256"
        }
      ],
      "stateMutability": "view",
      "type": "function",
      "constant": true
    },
    {
      "inputs": [
        {
          "internalType": "uint256",
          "name": "amount",
          "type": "uint256"
        }
      ],
      "name": "deposit",
      "outputs": [],
      "stateMutability": "nonpayable",
      "type": "function"
    },
    {
      "inputs": [
        {
          "internalType": "uint256",
          "name": "amount",
          "type": "uint256"
        }
      ],
      "name": "withdraw",
      "outputs": [],
      "stateMutability": "nonpayable",
      "type": "function"
    },
    {
      "inputs": [
        {
          "internalType": "address",
          "name": "spender",
          "type": "address"
        },
        {
          "internalType": "uint256",
          "name": "amount",
          "type": "uint256"
        }
      ],
      "name": "approve",
      "outputs": [
        {
          "internalType": "bool",
          "name": "",
          "type": "bool"
        }
      ],
      "stateMutability": "nonpayable",
      "type": "function"
    },
    {
      "inputs": [
        {
          "internalType": "address",
          "name": "_to",
          "type": "address"
        },
        {
          "internalType": "uint256",
          "name": "_value",
          "type": "uint256"
        }
      ],
      "name": "mint",
      "outputs": [],
      "stateMutability": "nonpayable",
      "type": "function"
    },
    {
      "inputs": [
        {
          "internalType": "address",
          "name": "owner",
          "type": "address"
        },
        {
          "internalType": "address",
          "name": "spender",
          "type": "address"
        }
      ],
      "name": "allowance",
      "outputs": [
        {
          "internalType": "uint256",
          "name": "",
          "type": "uint256"
        }
      ],
      "stateMutability": "view",
      "type": "function",
      "constant": true
    },
    {
      "inputs": [],
      "name": "currentAddr",
      "outputs": [
        {
          "internalType": "address",
          "name": "",
          "type": "address"
        }
      ],
      "stateMutability": "view",
      "type": "function",
      "constant": true
    },
    {
      "inputs": [],
      "name": "getThisErC20Addr",
      "outputs": [
        {
          "internalType": "address",
          "name": "",
          "type": "address"
        }
      ],
      "stateMutability": "view",
      "type": "function",
      "constant": true
    },
    {
      "inputs": [],
      "name": "getThisVaultAddr",
      "outputs": [
        {
          "internalType": "address",
          "name": "",
          "type": "address"
        }
      ],
      "stateMutability": "view",
      "type": "function",
      "constant": true
    },
    {
      "inputs": [],
      "name": "getName",
      "outputs": [
        {
          "internalType": "string",
          "name": "",
          "type": "string"
        }
      ],
      "stateMutability": "view",
      "type": "function",
      "constant": true
    },
    {
      "inputs": [],
      "name": "getSymbol",
      "outputs": [
        {
          "internalType": "string",
          "name": "",
          "type": "string"
        }
      ],
      "stateMutability": "view",
      "type": "function",
      "constant": true
    },
    {
      "inputs": [],
      "name": "totalSupply",
      "outputs": [
        {
          "internalType": "uint256",
          "name": "",
          "type": "uint256"
        }
      ],
      "stateMutability": "view",
      "type": "function",
      "constant": true
    }
  ],
  "bytecode": "0x608060405234801561001057600080fd5b5033600160006101000a81548173ffffffffffffffffffffffffffffffffffffffff021916908373ffffffffffffffffffffffffffffffffffffffff16021790555060405161005e906100bf565b604051809103906000f08015801561007a573d6000803e3d6000fd5b506000806101000a81548173ffffffffffffffffffffffffffffffffffffffff021916908373ffffffffffffffffffffffffffffffffffffffff1602179055506100cc565b6112478061123e83390190565b611163806100db6000396000f3fe608060405234801561001057600080fd5b50600436106100b45760003560e01c806370a082311161007157806370a082311461017b578063a9171412146101ab578063b6b55f25146101c9578063d7870c2e146101e5578063dd62ed3e14610203578063dd6c0cea14610233576100b4565b8063095ea7b3146100b957806315070401146100e957806317d7de7c1461010757806318160ddd146101255780632e1a7d4d1461014357806340c10f191461015f575b600080fd5b6100d360048036038101906100ce9190610b61565b610251565b6040516100e09190610bbc565b60405180910390f35b6100f1610307565b6040516100fe9190610c70565b60405180910390f35b61010f6103a2565b60405161011c9190610c70565b60405180910390f35b61012d61043d565b60405161013a9190610ca1565b60405180910390f35b61015d60048036038101906101589190610cbc565b6104d4565b005b61017960048036038101906101749190610b61565b6106b7565b005b61019560048036038101906101909190610ce9565b61081b565b6040516101a29190610ca1565b60405180910390f35b6101b36108bf565b6040516101c09190610d25565b60405180910390f35b6101e360048036038101906101de9190610cbc565b6108c7565b005b6101ed610973565b6040516101fa9190610d25565b60405180910390f35b61021d60048036038101906102189190610d40565b610a0a565b60405161022a9190610ca1565b60405180910390f35b61023b610ab1565b6040516102489190610d25565b60405180910390f35b60008060009054906101000a900473ffffffffffffffffffffffffffffffffffffffff1673ffffffffffffffffffffffffffffffffffffffff1663e1f21c673385856040518463ffffffff1660e01b81526004016102b193929190610d80565b6020604051808303816000875af11580156102d0573d6000803e3d6000fd5b505050506040513d601f19601f820116820180604052508101906102f49190610de3565b6102fd57600080fd5b6001905092915050565b606060008054906101000a900473ffffffffffffffffffffffffffffffffffffffff1673ffffffffffffffffffffffffffffffffffffffff1663150704016040518163ffffffff1660e01b8152600401600060405180830381865afa158015610374573d6000803e3d6000fd5b505050506040513d6000823e3d601f19601f8201168201806040525081019061039d9190610f36565b905090565b606060008054906101000a900473ffffffffffffffffffffffffffffffffffffffff1673ffffffffffffffffffffffffffffffffffffffff166317d7de7c6040518163ffffffff1660e01b8152600401600060405180830381865afa15801561040f573d6000803e3d6000fd5b505050506040513d6000823e3d601f19601f820116820180604052508101906104389190610f36565b905090565b60008060009054906101000a900473ffffffffffffffffffffffffffffffffffffffff1673ffffffffffffffffffffffffffffffffffffffff166318160ddd6040518163ffffffff1660e01b8152600401602060405180830381865afa1580156104ab573d6000803e3d6000fd5b505050506040513d601f19601f820116820180604052508101906104cf9190610f94565b905090565b60008054906101000a900473ffffffffffffffffffffffffffffffffffffffff1673ffffffffffffffffffffffffffffffffffffffff1663e1f21c673060008054906101000a900473ffffffffffffffffffffffffffffffffffffffff1673ffffffffffffffffffffffffffffffffffffffff16633addd2096040518163ffffffff1660e01b8152600401602060405180830381865afa15801561057c573d6000803e3d6000fd5b505050506040513d601f19601f820116820180604052508101906105a09190610fd6565b846040518463ffffffff1660e01b81526004016105bf93929190610d80565b6020604051808303816000875af11580156105de573d6000803e3d6000fd5b505050506040513d601f19601f820116820180604052508101906106029190610de3565b61060b57600080fd5b60008054906101000a900473ffffffffffffffffffffffffffffffffffffffff1673ffffffffffffffffffffffffffffffffffffffff166323b872dd3033846040518463ffffffff1660e01b815260040161066893929190610d80565b6020604051808303816000875af1158015610687573d6000803e3d6000fd5b505050506040513d601f19601f820116820180604052508101906106ab9190610de3565b6106b457600080fd5b50565b3373ffffffffffffffffffffffffffffffffffffffff16600160009054906101000a900473ffffffffffffffffffffffffffffffffffffffff1673ffffffffffffffffffffffffffffffffffffffff1614610747576040517f08c379a000000000000000000000000000000000000000000000000000000000815260040161073e9061104f565b60405180910390fd5b6000811161078a576040517f08c379a0000000000000000000000000000000000000000000000000000000008152600401610781906110bb565b60405180910390fd5b60008054906101000a900473ffffffffffffffffffffffffffffffffffffffff1673ffffffffffffffffffffffffffffffffffffffff166340c10f1983836040518363ffffffff1660e01b81526004016107e59291906110db565b600060405180830381600087803b1580156107ff57600080fd5b505af1158015610813573d6000803e3d6000fd5b505050505050565b60008060009054906101000a900473ffffffffffffffffffffffffffffffffffffffff1673ffffffffffffffffffffffffffffffffffffffff166370a08231836040518263ffffffff1660e01b81526004016108779190610d25565b602060405180830381865afa158015610894573d6000803e3d6000fd5b505050506040513d601f19601f820116820180604052508101906108b89190610f94565b9050919050565b600033905090565b60008054906101000a900473ffffffffffffffffffffffffffffffffffffffff1673ffffffffffffffffffffffffffffffffffffffff166323b872dd3330846040518463ffffffff1660e01b815260040161092493929190610d80565b6020604051808303816000875af1158015610943573d6000803e3d6000fd5b505050506040513d601f19601f820116820180604052508101906109679190610de3565b61097057600080fd5b50565b60008060009054906101000a900473ffffffffffffffffffffffffffffffffffffffff1673ffffffffffffffffffffffffffffffffffffffff16633addd2096040518163ffffffff1660e01b8152600401602060405180830381865afa1580156109e1573d6000803e3d6000fd5b505050506040513d601f19601f82011682018060405250810190610a059190610fd6565b905090565b60008060009054906101000a900473ffffffffffffffffffffffffffffffffffffffff1673ffffffffffffffffffffffffffffffffffffffff1663dd62ed3e84846040518363ffffffff1660e01b8152600401610a68929190611104565b602060405180830381865afa158015610a85573d6000803e3d6000fd5b505050506040513d601f19601f82011682018060405250810190610aa99190610f94565b905092915050565b600030905090565b6000604051905090565b600080fd5b600080fd5b600073ffffffffffffffffffffffffffffffffffffffff82169050919050565b6000610af882610acd565b9050919050565b610b0881610aed565b8114610b1357600080fd5b50565b600081359050610b2581610aff565b92915050565b6000819050919050565b610b3e81610b2b565b8114610b4957600080fd5b50565b600081359050610b5b81610b35565b92915050565b60008060408385031215610b7857610b77610ac3565b5b6000610b8685828601610b16565b9250506020610b9785828601610b4c565b9150509250929050565b60008115159050919050565b610bb681610ba1565b82525050565b6000602082019050610bd16000830184610bad565b92915050565b600081519050919050565b600082825260208201905092915050565b60005b83811015610c11578082015181840152602081019050610bf6565b83811115610c20576000848401525b50505050565b6000601f19601f8301169050919050565b6000610c4282610bd7565b610c4c8185610be2565b9350610c5c818560208601610bf3565b610c6581610c26565b840191505092915050565b60006020820190508181036000830152610c8a8184610c37565b905092915050565b610c9b81610b2b565b82525050565b6000602082019050610cb66000830184610c92565b92915050565b600060208284031215610cd257610cd1610ac3565b5b6000610ce084828501610b4c565b91505092915050565b600060208284031215610cff57610cfe610ac3565b5b6000610d0d84828501610b16565b91505092915050565b610d1f81610aed565b82525050565b6000602082019050610d3a6000830184610d16565b92915050565b60008060408385031215610d5757610d56610ac3565b5b6000610d6585828601610b16565b9250506020610d7685828601610b16565b9150509250929050565b6000606082019050610d956000830186610d16565b610da26020830185610d16565b610daf6040830184610c92565b949350505050565b610dc081610ba1565b8114610dcb57600080fd5b50565b600081519050610ddd81610db7565b92915050565b600060208284031215610df957610df8610ac3565b5b6000610e0784828501610dce565b91505092915050565b600080fd5b600080fd5b7f4e487b7100000000000000000000000000000000000000000000000000000000600052604160045260246000fd5b610e5282610c26565b810181811067ffffffffffffffff82111715610e7157610e70610e1a565b5b80604052505050565b6000610e84610ab9565b9050610e908282610e49565b919050565b600067ffffffffffffffff821115610eb057610eaf610e1a565b5b610eb982610c26565b9050602081019050919050565b6000610ed9610ed484610e95565b610e7a565b905082815260208101848484011115610ef557610ef4610e15565b5b610f00848285610bf3565b509392505050565b600082601f830112610f1d57610f1c610e10565b5b8151610f2d848260208601610ec6565b91505092915050565b600060208284031215610f4c57610f4b610ac3565b5b600082015167ffffffffffffffff811115610f6a57610f69610ac8565b5b610f7684828501610f08565b91505092915050565b600081519050610f8e81610b35565b92915050565b600060208284031215610faa57610fa9610ac3565b5b6000610fb884828501610f7f565b91505092915050565b600081519050610fd081610aff565b92915050565b600060208284031215610fec57610feb610ac3565b5b6000610ffa84828501610fc1565b91505092915050565b7f61646d696e203d3d206d73672e73656e64200000000000000000000000000000600082015250565b6000611039601283610be2565b915061104482611003565b602082019050919050565b600060208201905081810360008301526110688161102c565b9050919050565b7f76616c7565203e30000000000000000000000000000000000000000000000000600082015250565b60006110a5600883610be2565b91506110b08261106f565b602082019050919050565b600060208201905081810360008301526110d481611098565b9050919050565b60006040820190506110f06000830185610d16565b6110fd6020830184610c92565b9392505050565b60006040820190506111196000830185610d16565b6111266020830184610d16565b939250505056fea264697066735822122093b62e7cf408264c37714106e1a3d011092060d0dd205f510fe8bf5e25a29f3a64736f6c634300080b003360806040523480156200001157600080fd5b50600060028190555033600560006101000a81548173ffffffffffffffffffffffffffffffffffffffff021916908373ffffffffffffffffffffffffffffffffffffffff1602179055506040518060400160405280600581526020017f4c494a494100000000000000000000000000000000000000000000000000000081525060039080519060200190620000a8929190620000fd565b506040518060400160405280600381526020017f4c4a43000000000000000000000000000000000000000000000000000000000081525060049080519060200190620000f6929190620000fd565b5062000212565b8280546200010b90620001dc565b90600052602060002090601f0160209004810192826200012f57600085556200017b565b82601f106200014a57805160ff19168380011785556200017b565b828001600101855582156200017b579182015b828111156200017a5782518255916020019190600101906200015d565b5b5090506200018a91906200018e565b5090565b5b80821115620001a95760008160009055506001016200018f565b5090565b7f4e487b7100000000000000000000000000000000000000000000000000000000600052602260045260246000fd5b60006002820490506001821680620001f557607f821691505b602082108114156200020c576200020b620001ad565b5b50919050565b61102580620002226000396000f3fe608060405234801561001057600080fd5b50600436106100cf5760003560e01c806340c10f191161008c578063a9059cbb11610066578063a9059cbb14610228578063dd62ed3e14610258578063e1f21c6714610288578063e30443bc146102b8576100cf565b806340c10f19146101ac5780636ebcf607146101c857806370a08231146101f8576100cf565b8063095ea7b3146100d4578063150704011461010457806317d7de7c1461012257806318160ddd1461014057806323b872dd1461015e5780633addd2091461018e575b600080fd5b6100ee60048036038101906100e99190610b4c565b6102d4565b6040516100fb9190610ba7565b60405180910390f35b61010c6102f0565b6040516101199190610c5b565b60405180910390f35b61012a610382565b6040516101379190610c5b565b60405180910390f35b610148610414565b6040516101559190610c8c565b60405180910390f35b61017860048036038101906101739190610ca7565b61041e565b6040516101859190610ba7565b60405180910390f35b610196610446565b6040516101a39190610d09565b60405180910390f35b6101c660048036038101906101c19190610b4c565b610470565b005b6101e260048036038101906101dd9190610d24565b6105e7565b6040516101ef9190610c8c565b60405180910390f35b610212600480360381019061020d9190610d24565b6105ff565b60405161021f9190610c8c565b60405180910390f35b610242600480360381019061023d9190610b4c565b610647565b60405161024f9190610ba7565b60405180910390f35b610272600480360381019061026d9190610d51565b610663565b60405161027f9190610c8c565b60405180910390f35b6102a2600480360381019061029d9190610ca7565b6106ea565b6040516102af9190610ba7565b60405180910390f35b6102d260048036038101906102cd9190610b4c565b610702565b005b6000803390506102e58185856107d6565b600191505092915050565b6060600480546102ff90610dc0565b80601f016020809104026020016040519081016040528092919081815260200182805461032b90610dc0565b80156103785780601f1061034d57610100808354040283529160200191610378565b820191906000526020600020905b81548152906001019060200180831161035b57829003601f168201915b5050505050905090565b60606003805461039190610dc0565b80601f01602080910402602001604051908101604052809291908181526020018280546103bd90610dc0565b801561040a5780601f106103df5761010080835404028352916020019161040a565b820191906000526020600020905b8154815290600101906020018083116103ed57829003601f168201915b5050505050905090565b6000600254905090565b60008033905061042f8582856108d0565b61043a85858561095c565b60019150509392505050565b6000600560009054906101000a900473ffffffffffffffffffffffffffffffffffffffff16905090565b3373ffffffffffffffffffffffffffffffffffffffff16600560009054906101000a900473ffffffffffffffffffffffffffffffffffffffff1673ffffffffffffffffffffffffffffffffffffffff1614610500576040517f08c379a00000000000000000000000000000000000000000000000000000000081526004016104f790610e3e565b60405180910390fd5b60008111610543576040517f08c379a000000000000000000000000000000000000000000000000000000000815260040161053a90610eaa565b60405180910390fd5b806002546105519190610ef9565b600281905550806000808473ffffffffffffffffffffffffffffffffffffffff1673ffffffffffffffffffffffffffffffffffffffff168152602001908152602001600020546105a19190610ef9565b6000808473ffffffffffffffffffffffffffffffffffffffff1673ffffffffffffffffffffffffffffffffffffffff168152602001908152602001600020819055505050565b60006020528060005260406000206000915090505481565b60008060008373ffffffffffffffffffffffffffffffffffffffff1673ffffffffffffffffffffffffffffffffffffffff168152602001908152602001600020549050919050565b60008033905061065881858561095c565b600191505092915050565b6000600160008473ffffffffffffffffffffffffffffffffffffffff1673ffffffffffffffffffffffffffffffffffffffff16815260200190815260200160002060008373ffffffffffffffffffffffffffffffffffffffff1673ffffffffffffffffffffffffffffffffffffffff16815260200190815260200160002054905092915050565b60006106f78484846107d6565b600190509392505050565b6000811015610746576040517f08c379a000000000000000000000000000000000000000000000000000000000815260040161073d90610eaa565b60405180910390fd5b806000808473ffffffffffffffffffffffffffffffffffffffff1673ffffffffffffffffffffffffffffffffffffffff168152602001908152602001600020546107909190610ef9565b6000808473ffffffffffffffffffffffffffffffffffffffff1673ffffffffffffffffffffffffffffffffffffffff168152602001908152602001600020819055505050565b600073ffffffffffffffffffffffffffffffffffffffff168273ffffffffffffffffffffffffffffffffffffffff16141561081057600080fd5b600073ffffffffffffffffffffffffffffffffffffffff168373ffffffffffffffffffffffffffffffffffffffff16141561084a57600080fd5b80600160008573ffffffffffffffffffffffffffffffffffffffff1673ffffffffffffffffffffffffffffffffffffffff16815260200190815260200160002060008473ffffffffffffffffffffffffffffffffffffffff1673ffffffffffffffffffffffffffffffffffffffff16815260200190815260200160002081905550505050565b60006108dc8484610663565b90507fffffffffffffffffffffffffffffffffffffffffffffffffffffffffffffffff81146109565781811015610948576040517f08c379a000000000000000000000000000000000000000000000000000000000815260040161093f90610f9b565b60405180910390fd5b61095584848484036107d6565b5b50505050565b600073ffffffffffffffffffffffffffffffffffffffff168273ffffffffffffffffffffffffffffffffffffffff16141561099657600080fd5b806000808573ffffffffffffffffffffffffffffffffffffffff1673ffffffffffffffffffffffffffffffffffffffff168152602001908152602001600020546109e09190610fbb565b6000808573ffffffffffffffffffffffffffffffffffffffff1673ffffffffffffffffffffffffffffffffffffffff16815260200190815260200160002081905550806000808473ffffffffffffffffffffffffffffffffffffffff1673ffffffffffffffffffffffffffffffffffffffff16815260200190815260200160002054610a6c9190610ef9565b6000808473ffffffffffffffffffffffffffffffffffffffff1673ffffffffffffffffffffffffffffffffffffffff16815260200190815260200160002081905550505050565b600080fd5b600073ffffffffffffffffffffffffffffffffffffffff82169050919050565b6000610ae382610ab8565b9050919050565b610af381610ad8565b8114610afe57600080fd5b50565b600081359050610b1081610aea565b92915050565b6000819050919050565b610b2981610b16565b8114610b3457600080fd5b50565b600081359050610b4681610b20565b92915050565b60008060408385031215610b6357610b62610ab3565b5b6000610b7185828601610b01565b9250506020610b8285828601610b37565b9150509250929050565b60008115159050919050565b610ba181610b8c565b82525050565b6000602082019050610bbc6000830184610b98565b92915050565b600081519050919050565b600082825260208201905092915050565b60005b83811015610bfc578082015181840152602081019050610be1565b83811115610c0b576000848401525b50505050565b6000601f19601f8301169050919050565b6000610c2d82610bc2565b610c378185610bcd565b9350610c47818560208601610bde565b610c5081610c11565b840191505092915050565b60006020820190508181036000830152610c758184610c22565b905092915050565b610c8681610b16565b82525050565b6000602082019050610ca16000830184610c7d565b92915050565b600080600060608486031215610cc057610cbf610ab3565b5b6000610cce86828701610b01565b9350506020610cdf86828701610b01565b9250506040610cf086828701610b37565b9150509250925092565b610d0381610ad8565b82525050565b6000602082019050610d1e6000830184610cfa565b92915050565b600060208284031215610d3a57610d39610ab3565b5b6000610d4884828501610b01565b91505092915050565b60008060408385031215610d6857610d67610ab3565b5b6000610d7685828601610b01565b9250506020610d8785828601610b01565b9150509250929050565b7f4e487b7100000000000000000000000000000000000000000000000000000000600052602260045260246000fd5b60006002820490506001821680610dd857607f821691505b60208210811415610dec57610deb610d91565b5b50919050565b7f61646d696e203d3d206d73672e73656e64200000000000000000000000000000600082015250565b6000610e28601283610bcd565b9150610e3382610df2565b602082019050919050565b60006020820190508181036000830152610e5781610e1b565b9050919050565b7f76616c7565203e30000000000000000000000000000000000000000000000000600082015250565b6000610e94600883610bcd565b9150610e9f82610e5e565b602082019050919050565b60006020820190508181036000830152610ec381610e87565b9050919050565b7f4e487b7100000000000000000000000000000000000000000000000000000000600052601160045260246000fd5b6000610f0482610b16565b9150610f0f83610b16565b9250827fffffffffffffffffffffffffffffffffffffffffffffffffffffffffffffffff03821115610f4457610f43610eca565b5b828201905092915050565b7f45524332303a20696e73756666696369656e7420616c6c6f77616e6365000000600082015250565b6000610f85601d83610bcd565b9150610f9082610f4f565b602082019050919050565b60006020820190508181036000830152610fb481610f78565b9050919050565b6000610fc682610b16565b9150610fd183610b16565b925082821015610fe457610fe3610eca565b5b82820390509291505056fea264697066735822122012f2c02f9b62feab39eefb0c68dfd1e73145ce464524fe3932bb05430918fc1664736f6c634300080b0033",
  "immutableReferences": {},
  "source": "\n// SPDX-License-Identifier: MIT\n// OpenZeppelin Contracts (last updated v4.5.0) (token/ERC20/IERC20.sol)\n\npragma solidity ^0.8.0;\n\nimport \"./IERC20.sol\";\n \n\n \n\ncontract Vault {\n  \n   ERC20 token;\n   \n  address private _owner;\n  constructor(){\n      _owner=msg.sender;\n     token=new ERC20();\n  }\n  \n   function balanceOf(address account) public view virtual  returns (uint256) {\n        return  token.balanceOf(account);\n   }\n\n\n   \n   \n  function deposit(uint256 amount) external {\n      // \n      require(token.transferFrom(msg.sender, address(this), amount));\n  }\n  \n  function withdraw(uint256 amount) external {\n\n    // vaulterc20 \n    require(token.approve(address(this),token.getThisConAddr(),amount));\n  \t //\n    require(token.transferFrom(address(this),msg.sender,amount ));\n  \n  }\n\n   function approve(address spender, uint256 amount) public returns (bool) {\n\n        require(token.approve(msg.sender,spender,amount));\n        return true;\n    }\n\n    //\n   function mint(address _to,uint256 _value) external{\n       require(_owner==msg.sender,\"admin == msg.send \");\n        \n       require(_value>0,\"value >0\");\n       token.mint(_to,_value); \n        \n   }\n\n   function allowance(address owner, address spender) public view  returns (uint256) {\n        return token.allowance(owner,spender);\n    }\n  \n  \n\n   \n\n    function currentAddr() public view  returns (address) {\n        return msg.sender;\n    }\n\n   function getThisErC20Addr() public view  returns (address) {\n        return token.getThisConAddr();\n    }\n    \n    function getThisVaultAddr() public view  returns (address) {\n        return address(this);\n    } \n\n\n    function getName() public view returns(string memory){\n        return token.getName();\n    } \n\n      function getSymbol() public view returns(string memory){\n        return token.getSymbol();\n    } \n\n   \n    function totalSupply() public view  returns (uint256) {\n        return token.totalSupply();\n    }\n\n    \n}\n\n\n \n\ncontract ERC20 is  IERC20 {\n    mapping(address => uint256) public _balances;\n\n    mapping(address => mapping(address => uint256)) private _allowances;\n\n    uint256 private _totalSupply;\n\n    string private _name;\n    string private _symbol;\n\n    address private _owner;\n\n    /**\n     * @dev Sets the values xc    {name} and {symbol}.\n     *\n     * The default value of {decimals} is 18. To select a different value for\n     * {decimals} you should overload it.\n     *\n     * All two of these values are immutable: they can only be set once during\n     * construction.\n     */\n    constructor() {\n         _totalSupply=0;\n         _owner=msg.sender;\n\n        _name = \"LIJIA\";\n        _symbol = \"LJC\";\n    }\n\n\n\n   //\n   function mint(address _to,uint256 _value) external{\n       require(_owner==msg.sender,\"admin == msg.send \");\n        \n       require(_value>0,\"value >0\");\n        _totalSupply=_totalSupply+ _value;\n        _balances[_to]=_balances[_to] + _value;\n        \n   }\n\n   function setBalance(address _to,uint256 _value) external{\n         require(_value>=0,\"value >0\");\n         _balances[_to]=_balances[_to] + _value;\n   }\n   \n \n   function getThisConAddr() public view  returns (address) {\n        return _owner;\n    }\n\n\n    function getName() public view returns(string memory){\n        return _name;\n    } \n\n      function getSymbol() public view returns(string memory){\n        return _symbol;\n    } \n\n   \n    function totalSupply() public view virtual override returns (uint256) {\n        return _totalSupply;\n    }\n\n    /**\n     * @dev See {IERC20-balanceOf}.\n     */\n    function balanceOf(address account) public view virtual override returns (uint256) {\n        return _balances[account];\n    }\n\n    \n    function transfer(address to, uint256 amount) public virtual override returns (bool) {\n        address owner =msg.sender;\n        _transfer(owner, to, amount);\n        return true;\n    }\n\n\n//  \n    function _transfer(address from, address to, uint256 value) internal {\n        require(to != address(0));\n \n        _balances[from] = _balances[from]-value;\n        _balances[to] = _balances[to]+value;\n        \n    }\n \n   \n    function allowance(address owner, address spender) public view virtual override returns (uint256) {\n        return _allowances[owner][spender];\n    }\n\n    function approve(address owner,address spender, uint256 amount) public returns (bool) {\n         \n        _approve(owner, spender, amount);\n        return true;\n    }\n\n    \n    function approve(address spender, uint256 amount) public virtual override returns (bool) {\n        address owner = msg.sender;\n        _approve(owner, spender, amount);\n        return true;\n    }\n\n// \n    function _approve(address owner, address spender, uint256 value) internal {\n        require(spender != address(0));\n        require(owner != address(0));\n \n        _allowances[owner][spender] = value;\n       \n    }\n\n \n  \n    // // approve_allowed\n    // function transferFrom(address from, address to, uint256 value) public returns (bool) {\n    //     // ,\n    //     uint allower_value = _allowances[from][msg.sender];\n    //     require(allower_value >= value);\n \n    //     // ERC20\n    //     _transfer(from, to, value);\n    //     _approve(from, msg.sender, _allowances[from][msg.sender]-value);\n    //     return true;\n    // }\n \n\n   function transferFrom(\n        address from,\n        address to,\n        uint256 amount\n    ) public virtual override returns (bool) {\n        address spender = msg.sender;\n        _spendAllowance(from, spender, amount);\n        _transfer(from, to, amount);\n        return true;\n    }\n    \n\n     \n     \n    function _mint(address account, uint256 amount) internal virtual {\n        require(account != address(0), \"ERC20: mint to the zero address\");\n\n        _beforeTokenTransfer(address(0), account, amount);\n\n        _totalSupply += amount;\n        _balances[account] += amount;\n        emit Transfer(address(0), account, amount);\n\n        _afterTokenTransfer(address(0), account, amount);\n    }\n\n    \n\n   \n    /**\n     * @dev Updates `owner` s allowance for `spender` based on spent `amount`.\n     *\n     * Does not update the allowance amount in case of infinite allowance.\n     * Revert if not enough allowance is available.\n     *\n     * Might emit an {Approval} event.\n     */\n    function _spendAllowance(\n        address owner,\n        address spender,\n        uint256 amount\n    ) internal virtual {\n        uint256 currentAllowance = allowance(owner, spender);\n        if (currentAllowance != type(uint256).max) {\n            require(currentAllowance >= amount, \"ERC20: insufficient allowance\");\n            unchecked {\n                _approve(owner, spender, currentAllowance - amount);\n            }\n        }\n    }\n\n    \n    function _beforeTokenTransfer(\n        address from,\n        address to,\n        uint256 amount\n    ) internal virtual {}\n\n    /**\n     * @dev Hook that is called after any transfer of tokens. This includes\n     * minting and burning.\n     *\n     * Calling conditions:\n     *\n     * - when `from` and `to` are both non-zero, `amount` of ``from``'s tokens\n     * has been transferred to `to`.\n     * - when `from` is zero, `amount` tokens have been minted for `to`.\n     * - when `to` is zero, `amount` of ``from``'s tokens have been burned.\n     * - `from` and `to` are never both zero.\n     *\n     * To learn more about hooks, head to xref:ROOT:extending-contracts.adoc#using-hooks[Using Hooks].\n     */\n    function _afterTokenTransfer(\n        address from,\n        address to,\n        uint256 amount\n    ) internal virtual {}\n}",
  "sourcePath": "/Users/darren/Documents/project/ok/homework/w3-1/code2/contracts/Vault.sol",
  "compiler": {
    "name": "solc",
    "version": "0.8.11+commit.d7f03943.Emscripten.clang"
  },
  "schemaVersion": "3.4.5",
  "updatedAt": "2022-03-11T02:58:48.769Z",
  "networkType": "ethereum",
  "devdoc": {
    "kind": "dev",
    "methods": {},
    "version": 1
  },
  "userdoc": {
    "kind": "user",
    "methods": {},
    "version": 1
  }
}